:020000021000EC
:108000000040002079050200B5050200B705020016
:108010000000000000000000000000000000000060
:10802000000000000000000000000000B905020090
:108030000000000000000000BB050200BD050200BA
:10804000BF050200C1AD0100350C0200BF050200F2
:10805000BF05020000000000F1050200BF0502009C
:10806000BF050200B10E0200BD0A0200BF050200FA
:10807000BF050200BF050200BF050200BF050200E8
:10808000BF050200BF050200BF050200BF050200D8
:10809000BF05020055030200DDF60100BF05020026
:1080A000BF050200BF050200000000000000000044
:1080B00000000000000000000000000000000000C0
:1080C0000448054B10B5834203D0044B002B00D06D
:1080D000984710BDB0200020B02000200000000014
:1080E00006480749091A8B10C90FC91810B549105D
:1080F00003D0044B002B00D0984710BDB0200020C7
:10810000B02000200000000010B5074C2378002BA1
:1081100009D1FFF7D5FF054B002B02D0044800E042
:1081200000BF0123237010BDC82000200000000004
:1081300084800200054B10B5002B03D0044905488C
:1081400000E000BFFFF7CCFF10BDC04600000000FC
:10815000CC20002084800200402292029A1A92468B
:108160007047C046154B002B00D1114B9D46FFF7C1
:10817000F3FF00218B460F461148124A121A0AF0EB
:108180000DFB0C4B002B00D098470B4B002B00D065
:1081900098470020002104000D000B480AF08EF9DA
:1081A0000AF0D4F9200029000EF02BFD0AF0A4F902
:1081B0000000080000000000000000000040002057
:1081C000B0200020DC2A00202525020010B5040084
:1081D000034B036040300BF0CFFC200010BDC046C5
:1081E000B46F020013B50368010002229B5E01A870
:1081F000042201F011F9019B181D054B19680BF0C1
:10820000AFFA040001A80BF0B7FC200016BDC04671
:108210000420002007B5010001A80BF002FD01A910
:1082200003480CF075FE01A80BF0A6FC07BDC04684
:10823000D824002013B5094C0100236801A80222AC
:108240009B5E002201F0E8F8210001A80BF000FD80
:10825000040001A80BF090FC200016BDE4200020D3
:1082600010B586B0194905A802F0ECFE05A904A8CE
:1082700001F072F805A80BF00FFE04A905A80BF099
:10828000D0FC05A8FFF7D6FF040005A80BF074FC8E
:10829000002C16D004A905A80BF0C3FC05A8FFF715
:1082A000A1FF040005A80BF067FC210005A801F060
:1082B00043F80222064805A90CF0A9FE05A80BF018
:1082C0005BFC04A80BF058FC06B010BDD8240020BD
:1082D0001021002037B5194D1949280001F02CF85C
:1082E000184C1949220028000EF037FE174D2800BF
:1082F00000F0EAF82200280015490EF02EFE0022B8
:108300001E2114480CF006FB134D022303226421A6
:10831000280002F051FC2200280010490EF01DFE3A
:1083200014230F4D009328001922182102F030FF6A
:10833000280022000B490EF010FE37BDE42000207B
:10834000A87A020000200020793B02007021002062
:1083500069830100F8200020E82000204D3702004A
:1083600010210020CD810100CB23144A9B0010B5C1
:10837000C2501C330400C0180BF0FEFBD1239B003D
:10838000E0180BF0F9FB20009130FF3001F020FCE9
:1083900020006930FF3001F01BFC2000F03001F0BC
:1083A00089FF2000D03002F0E3FA2000643008F0AA
:1083B00041F8201DFFF70AFF200010BD40740200A5
:1083C00030B53748A5B000F035F9E121354849020C
:1083D00002F0D4FE30200EF0CBFD10230400092162
:1083E00000930122304B0BF061FB21002F4802F07B
:1083F00053FA002805D020000BF072FB20000EF08D
:10840000B3FD2B4CFA25200002F020FD392120007D
:1084100002F008FDAD0027480BF077FE00280DD0D4
:10842000254904A80AF024FC04A903A800F084FF4D
:1084300003A80BF0A4F903A80BF09EFB00238022F5
:108440001E4902A80CF0ECFD1D4903A800F074FFC2
:1084500003A902A80BF0FCFB041E0BD1194904A8C8
:1084600000F06AFF04A902A80BF0F2FB040004A8C4
:108470000BF082FB03A80BF07FFB002C09D002A9B4
:1084800004A80BF0CEFB04A80BF079F904A80BF0BC
:1084900073FB280000F038FD02A80BF06DFBBAE773
:1084A0007021002074210020618201004022002000
:1084B000C0240020D8220020AE7A02001021002023
:1084C000B67A0200B97A02001423F0B5040093B022
:1084D000192200931821043002F05AFE23002500CF
:1084E000260064331800B43513211093B83607F012
:1084F000ADFF28000CF0F9FD00221E2130000CF029
:1085000009FA2000D03002F053FA2300F03307219B
:108510001800454A119301F0F5FE200000270123C1
:1085200069301A0011210097FF3001F05DFB200037
:108530009130012302221A210097FF3001F054FBF1
:108540002000B930022201210323FF3002F0FCFA9F
:10855000300001F04FF9E4235B00E050300001F0FF
:108560009DFBE6235B00E0500100E4222000520066
:10857000D130119BA2580095FF3001F091FC2000F2
:10858000E13029000822FF3003F064F9782320004D
:108590000F93013B0E93033B0D93013B0C93013B67
:1085A0000B93013B0A93013B0993013B0893013B69
:1085B0000793013B0693013B0593013B0493013B69
:1085C0000393013B0293013B0193F930013B652288
:1085D00000936421013BFF300CF0BDF9CB239B00DD
:1085E0002900E01804F0F6F8D4239B00E0180921D4
:1085F00002F082FBDE239B00E750109803212770D6
:108600000EF0C1F923002200200008499C33A0325B
:108610001C6082C2064A02215A618030012208F0A1
:1086200099F8200013B0F0BDBC6F0200B93702000A
:10863000A33702000278F0B501231700040091B0BF
:108640001F401A4263D10300D0331800049300F096
:10865000CBFA00F0DDF930200EF08AFC0500103076
:108660000BF029FB280024300BF0ADF96A4B1820E1
:108670002B600EF07DFC0600684B08223900046078
:108680000C300E930F970AF089F80EA90822301DBE
:1086900009F0DCFF624B2900736112230498AE607D
:1086A000EF60AB802F62EF6202F0F6F8002805D091
:1086B00028000BF015FA28000EF056FC01232600C6
:1086C0002278B43613432370564930000CF013FD62
:1086D00000255549039030000CF00DFD2F0005904A
:1086E000642000F011FC029523006933FF33180069
:1086F00006930BF00AFD00280BD1039B002B12D12F
:10870000059B002B0FD14949494800F0C1FC11B02D
:10871000F0BD20009130FF300BF0F7FC0028ECD0CA
:10872000029B182BE9DC20006530FF2339B22AB206
:10873000FF3000F0C9FE322000F0E6FB029B01375B
:108740000133FFB20293052F02D100270135EDB2AC
:10875000029B192B0AD0039B002BC5D03000314956
:1087600003F00AF803980EF0FFFB02E0039B002BD6
:10877000F4D1059B002B02D018000EF0F5FB2B491D
:108780002C4800F085FCCB239B00E3180793DE23E5
:108790009B00E3580893002B36D100F059F80100F4
:1087A0000BA800F0C9FD0BF08DF808900BF08AF8CB
:1087B0006B460990198C0DA80BF0FAF9099B0EA8CD
:1087C000190C0BF0F5F90EAA0DA90CA80BF050FA34
:1087D0000EA80BF0D1F90DA80BF0CEF901230CAACD
:1087E0000BA907980093049B04F04EF80CA80BF01B
:1087F000C3F90BA80BF0C0F9CD239B00E3580893F5
:10880000DE23089A9B00E2502100069A0798F03177
:1088100004F02AFA68E7C046FD0300002B38020086
:10882000EB370200BC7A0200C77A02000020002069
:1088300008000020001C0020BFF34F8F024B034AAA
:10884000DA60BFF34F8FFEE700ED00E00400FA05A9
:10885000F0B58BB003AF19223800154909F0F6FEC8
:108860000023144D05266B7180235B055B6E2C0085
:108870000093012301933100009808F0B3FC080035
:10888000019908F029FC0522009B56431B1A00930E
:10889000019B534301932B1B5343FB181B5C013C6F
:1088A0006371054B9C42E6D102480BB0F0BDC04657
:1088B0000D7B0200162A0020112A0020F0B595B089
:1088C0001822002104000EA809F068FF13210EA849
:1088D0000EF07DF903210EA80EF01CFA464B1B6822
:1088E000002B00D10133DBB2009300210123434A66
:1088F00009A808F09FF8FA239B009C429B411C406A
:1089000072B63F4B64211E683E4B2000059305253F
:1089100008F06CFC6843503030180A2106902000A3
:1089200008F064FC0A2108F047FD694350317118D2
:10893000200007910A2108F03FFD6943503171186A
:10894000802600240891B601009B002B52D004AD74
:108950000027032C02D180260024B6016B682A4A26
:1089600002936300D3180022019258780299095C9F
:10897000039119788C461021604601410398014209
:1089800004D0012090400199014301910132063346
:10899000092AEAD1019B2A68D9431C4B09011940D5
:1089A000029B934224D1312F22DC002109A80EF032
:1089B0006AFAFA23139A0F99DB001068014219D062
:1089C000013B002BF9D1FA23013401377600E4B2E0
:1089D0005B009F42BDD1043508ABAB42B8D1064B1A
:1089E0001B68002BB0D0009B013BDBB20093ABE7D0
:1089F0003143DBE7FFF720FFF0240020F0FF000009
:108A0000082000205C7B0200267B0200F01F000093
:108A1000F8B50023124C23600AF046FF002808D066
:108A2000042120000AF03CFF002801D00D4B2360F8
:108A3000F8BD0123A12704210B4A0C4D13602368C4
:108A4000FF0068606E68002EFCD0D6591B02013909
:108A500033430029F5D1236001235360E8E7C04682
:108A6000EC240020ED5EBC0B00D00040FCD00040A8
:108A70000B4B70B51C68002C10D0656D00F018FC15
:108A8000A36C002901D1834206D820000AF063FFBD
:108A9000200004490AF04FFF2C00ECE770BDC046EF
:108AA000F824002018250020F0B595B007932A4B34
:108AB00004AC1E68049005910692002E49D0274B05
:108AC000678825881C6800230293002C2DD0636DD5
:108AD00023480393A36C190C9AB20B00854214D15E
:108AE0002048824211D1002901D0B9420BD1029B0A
:108AF000002B08D120000AF02EFF20001A490AF0AE
:108B00001AFF01230293039CDFE7002A01D095425C
:108B1000F9D1002901D0BB42F5D120000AF01BFF9A
:108B2000200011490AF007FFEDE7104BEB18012B6D
:108B30000FD910233A002900009308A80C4B0AF023
:108B4000B5FF336830009B6808A9984708A80AF069
:108B5000C7FF15B0F0BDC046F42400202825002032
:108B6000FE030000FF0300001825002002FCFFFFA9
:108B7000A98A010010B572B60E4B1C68002C0ED0ED
:108B800020000AF0E8FE0023E3640B4BE36372B6B7
:108B90000A4B1A681C60A26562B6200010BD62B65E
:108BA0005C200EF0E5F95C220021040009F0F6FDDE
:108BB000E9E7C04620250020004000201C250020B9
:108BC000074B10B51C68E36CDB0706D5FFF7D2FF37
:108BD000044B1860002800D00400200010BDC046DF
:108BE0002C250020FC240020F7B51E4C0123227800
:108BF00016001E401A4233D11B4D2860FFF7BAFF02
:108C00001A4B1B4918600AF096FEFFF7B3FF194B89
:108C10001860194B4363194B8363286800280FD0F1
:108C2000C023174F3200174900933B000AF05DFE46
:108C3000C023009332003B00134928680AF055FE18
:108C40000C200EF095F90023838083710F4B036095
:108C50000F4B836000F044FB012322781343237001
:108C6000F7BDC0461C2A0020F42400202C2500203B
:108C70001825002024250020FC3F0020BB390200DD
:108C8000A98A0100FF030000FE030000DC6F020060
:108C9000718A0100024B1878012318407047C046C2
:108CA0001C2A0020F7B5134F04003B680E00002B70
:108CB0001ED0114B1B78DB071AD5FFF781FF05008B
:108CC0003304234383640AF046FE28000B490AF06C
:108CD00032FE0B4B0025E318012B07D9C02300936C
:108CE00032002100074B38680AF0FFFD2800FEBD66
:108CF000054DFBE7F42400201C2A00202825002035
:108D000002FCFFFFA98A010016FCFFFFF7B5060071
:108D10000D0017000193002802D100242000FEBDA1
:108D20000029FAD0FFF726FF041EF6D0074B019A60
:108D300043630660064B45608760002A00D0054B00
:108D400020000549A3630AF0F6FDE7E7FC3F002099
:108D500095390200A33902001825002070B5074B91
:108D60000E0011001A7805000123100018401A4265
:108D700003D032002800FFF7C9FF70BD1C2A002075
:108D8000F8B50500EFF30884C36B006C1C1B6B6C1B
:108D90001B1A9C420FD91F23074E203437689C436F
:108DA000002801D000F0D6F9200000F09FF92864D7
:108DB000001968643760F8BD2C250020024B186844
:108DC000434258417047C046182500200300002246
:108DD00010B5044994006058002801D00132F9E729
:108DE000635010BD00250020002310B5044A9900EF
:108DF0008C58844201D00133F9E70020885010BD1F
:108E00000025002010B50024084BA200D0580028EF
:108E100002D003685B6898470134062CF4D1044BF8
:108E20001B68002B00D120BF10BDC04600250020CC
:108E3000182500200122F8B52C4B1B7813421CD0BA
:108E40002B4D2C68E36C134218D002273B43E3649C
:108E5000284B1E680423F26C30001343F364636BE9
:108E6000F363FFF78DFF3000716C04F0FEFA2868A1
:108E7000C36C3B4201D004F032FBF8BD1E4F1F4EC5
:108E80003A683068002A0AD128601B0712D52C6086
:108E9000FFF7B8FF3B68002BFAD02B600AE0216D8A
:108EA000B94219D1616D002900D1110029602A68E9
:108EB0008242EAD029688C42DFD0336899420DD1D2
:108EC0000F4B4B630F4B8B632000FFF759FF296853
:108ED00020004B6C626C06E02A60E8E79C42F3D10C
:108EE000002210004B6C04F07FFAC6E71C2A002019
:108EF0002C250020FC2400201825002024250020FB
:108F0000FC3F0020BB39020070B50C4B04001B78FD
:108F1000DB0702D40DF0F7FE70BDFFF751FE050030
:108F200000F0C6F92418AC6428000AF014FD2800EB
:108F300003490AF000FDFFF77DFFEDE71C2A002042
:108F4000F8240020F8B51B4B1B78DB0727D500243D
:108F5000194E30680AF0FFFC184D2B68002B02D028
:108F60005B6D0134FAE7032C0ADD2F68013C7B6D51
:108F7000386C2B6000F0EEF8380000F0EBF8F2E708
:108F8000290030680AF0D7FC72B60D4932680B68C8
:108F9000934206D19B6D0B6062B6FFF74BFFF8BDA5
:108FA0000B00002BF8D0996D8A42F9D1926D9A6529
:108FB000F2E7C0461C2A00202C2500202025002096
:108FC0001C25002010B5034B1B78DB0701D5FFF7EC
:108FD000B9FF10BD1C2A0020F7B505000C000028C1
:108FE00033D001261B4B1B78334230D01A4F072356
:108FF0003868C26C1100194000911A4207D0210054
:109000002800164AFFF7AAFE00252800FEBD04F03E
:109010004EFA3A680221D36C1800084001900B42C6
:1090200003D001318B43D364EEE73343D364200094
:10903000A8473A68019DD36C1900B143D1645B071E
:10904000E3D52000FFF7BEFFDFE7054DDDE7054D67
:10905000DBE7C0461C2A00202C250020C58F01001C
:1090600017FCFFFF16FCFFFF020010B5014B12CBEF
:1090700012C210BD30250020034B1A68034B1A6042
:109080007E225A607047C04608200020302500200C
:10909000F0B5124E03003278022A1BD081421BD950
:1090A0000C1A072C18D90D00054303272800384057
:1090B0003D4211D172B6BA40094DA4085351AA18C5
:1090C00051608022120614431C60337801333370E0
:1090D00062B6F0BD0348FCE70348FAE71E2A002009
:1090E0003825002013FCFFFF17FCFFFF70B5041E9E
:1090F00023D0124D124E2B78002B0CD1114912485F
:109100003370FFF7C5FF114B984202D11E20FFF7C5
:10911000D5FB01232B7000253378AB4209DD0C49C8
:10912000EB002000C9180AF052FC002805D10135D7
:10913000F2E71420FFF7C2FB002070BD1D2A0020BB
:109140001E2A002000380020E02A002017FCFFFF24
:109150003825002010B5002817D000220F4B1978B1
:109160000F4B914215DD1C6884420FD25C6884422B
:109170000CD9041F2368002B02DC1E20FFF79EFB86
:10918000802322681B061343236010BD013208337D
:10919000E7E71E20FFF792FBF7E7C0461E2A0020F4
:1091A0003825002070B5051E14DD0B4E0B4C3368BE
:1091B000002B02D020680DF05DFCFA21206800240D
:1091C000074B89008361C462694335600DF063FC1D
:1091D000200070BD0348FCE74825002078250020CA
:1091E0008D92010017FCFFFFF8B5114F05003E6896
:1091F000002E0AD130200DF0BBFE040007F08EF9DE
:109200000C4BA6612360E6623C600B4E3368002B7A
:1092100009D110200DF0ACFE04000DF088FC2000F8
:1092200034600DF05EFC2800FFF7BCFFF8BDC046BF
:1092300078250020E877020074250020014B18688B
:109240007047C0464825002070B50D4C2368002BA0
:1092500003D00C4B1B68002B02D10620FFF7C4FF84
:1092600020680DF055FC02000749C3170D684E68D1
:109270005219734120680A604B600DF04FFC70BDBD
:109280007425002078250020B020002010B5FFF7BD
:10929000DBFF0024054BA200D058002802D0036851
:1092A0001B68984701340A2CF4D110BD4C250020CE
:1092B00010B5FFF7C9FFFA22034B920018685968EE
:1092C000002308F0B9F810BDB020002010B5FFF75A
:1092D000BBFF024B1868596810BDC046B020002083
:1092E0000B4B10B51B680400002B03D0094B1B6807
:1092F000002B02D10620FFF777FF0023064A9900D2
:109300008858002801D00133F9E78C5010BDC046C1
:1093100074250020782500204C250020002310B55E
:10932000044A99008C58844201D00133F9E70020A7
:10933000885010BD4C25002010B50400002902D033
:109340000B78002B03D1034B2360200010BD0AF0E3
:109350001AFCFAE7EC6F0200F8B5050008000C00F3
:109360000AF0D6FD002803D1124B2B602800F8BD6F
:1093700020000AF0CDFD0530FFF7B8FE28600AF0A6
:10938000CAFD20000AF0C4FD2E68708020000AF09B
:10939000BCFD070020000AF0BBFD39000200301DB3
:1093A00009F054F920002E680AF0B2FD00233618A7
:1093B0003371DBE7EC6F0200F8B504000E00150016
:1093C00000290AD00B78002B07D0002A05D008000E
:1093D00097B209F055FC874203D90B4B236020005C
:1093E000F8BD681DFFF782FE20600AF094FD20683A
:1093F0002A0047803100043009F028F923685D19FC
:1094000000232B71EBE7C046EC6F0200014B0360B9
:109410007047C046EC6F020070B509681600022262
:109420008C5E0500A64206DB084B186828600AF02F
:1094300075FD280070BDA41B9C4200DD1C0004319A
:10944000280022B28919FFF7B7FFF2E77C25002038
:1094500010B50548054C20600AF060FD2000044A64
:1094600004490DF07AFD10BDEC6F02007C25002050
:1094700000200020793B0200084B73B51D680400F2
:10948000002D0AD001002E6808220831684609F034
:10949000DDF80CCC28003168884773BD802500209A
:1094A000014B03607047C046F46F020010B5040022
:1094B000081E03D1034B2360200010BD21600AF079
:1094C0002DFDF9E7F46F020030B500684488A14231
:1094D0000CDA8588AA4209DA002907DB002A05DBB5
:1094E0006243401880188371002030BD0048FCE7BB
:1094F00017FCFFFFF0B507000E001D0085B0002926
:1095000021DD002A1FDD002B1DD004686388039332
:109510008B4200DD0391A3880293934200DD029207
:10952000002306340193019B029A93420ED0290036
:109530002000039A09F08AF83B68AD195B88E418AB
:10954000019B0133EEE7024805B0F0BD0020FBE7C8
:1095500017FCFFFFF8B504000D0016001F000029DE
:1095600001DB002A02DA0D4B2360F8BD10004843EE
:109570000630FFF7BBFD20600AF0CDFC23685D805C
:109580009E80002F06D03B00320029002000FFF70C
:10959000B1FFEAE720000AF0DFFBE6E7F46F020024
:1095A000F7B507000D1E03D1244B03603800FEBD44
:1095B000002408002600210001940378002B1AD013
:1095C0003022524294469C446246092A11D90A2B01
:1095D0000AD1019B361901330193B14200DA3100FF
:1095E000002426000130E8E7002CFBD000240136DF
:1095F000F8E70124F6E7019A380012B209B2FFF742
:10960000A9FF012149420E000A203B689A1D2C78CF
:10961000002CCBD02300303B092B08D8CB43DB17E1
:109620000B4043431B19303B19000135EFE700297C
:10963000FBDB117031000132F7E7C046F46F020026
:10964000F0B5040087B004A80E001D000192FFF7DA
:109650000BFD236801995A88914233DA9B889D4219
:1096600030DA1F2E2ED9059B00939E422ADC05235B
:1096700000217343049AA03BD3180393039B6E18F5
:109680005B5C02930023019AD718226850880090EF
:10969000B8420EDD9088B0420BDD0098D2197043BD
:1096A000121810201841029F3840471EB84140420E
:1096B00090710133052BE6D101310529DED100205F
:1096C00007B0F0BD0048FBE717FCFFFFF7B50368E4
:1096D00006009F1D5B880D005A1A0192002919DDB2
:1096E0000024994203DB0AF037FB002013E03368C3
:1096F0009B889C42F9DA79193800019A08F0A6FF94
:10970000019B2900F8180AF00AFB336801345B88D2
:10971000FF18ECE70048FEBD17FCFFFF10B5054839
:10972000054C20600AF0FAFB2000044A04490DF0C1
:1097300014FC10BDF46F02008425002000200020DE
:10974000113D020010B5054C012120000AF0CEFBAE
:109750002000034A03490DF000FC10BD88250020BD
:1097600000200020993E0200074A030010B50120A6
:10977000934208D0834202D00020DB0703D41E208E
:10978000FFF79CF8002010BDFFFF00000048704765
:1097900016FCFFFF10B53220FFF790F8004810BD0F
:1097A00016FCFFFF82801422002310B541620F4C8B
:1097B0000100083404600E240281123A837182721F
:1097C0000363838636310A78C360A2430361436131
:1097D0008361C36103620A70021DD387012242873D
:1097E000034AC26302004032137010BD14700200BD
:1097F00001000100F0B5564E0500376897B0002F04
:1098000000D090E006AC0B231C228221200001F046
:10981000D3F90B231D2283210AA801F0CDF90B23D4
:109820001B2284210EA801F0C7F908200DF0A0FB2F
:1098300001223B00110004900BF0BFFF3A212800E9
:109840000BF0DAFC00281CD0A38812AFBB80A379F0
:10985000A268BB713F4B5C2012930E23E356149217
:10986000A289BB73BA810DF083FB052301933533C5
:1098700000933A002900049B040002F0EDFA3460E2
:1098800051E0322128000BF0E5FC00281BD0A38812
:1098900012AFBB80A379A268BB712E4B5C201293E0
:1098A0000E23E3561492A289BB73BA810DF060FBBC
:1098B000052301932D3300933A002900049B0400F3
:1098C00002F06EFCDBE73C2128000BF07EFC002858
:1098D00034D0362202AB9B8E12AFBB8002AB9B18FA
:1098E0001B780832BB711B4BA420129302AB9B1850
:1098F000109A1B781492059202AA928F5BB2BA81D9
:10990000BB730DF035FB062304000293013B01936A
:10991000373300933A00049B290002F0BDF90E4B47
:10992000346044341C600C4B094C1868002802D089
:1099300021680AF058FC206817B0F0BD44200DF0F3
:1099400017FB052204990400FFF72CFF97E7C04698
:109950008C2500200470020090250020F0B563499A
:10996000C56885B08D4258DA030036331C78022270
:109970002300134014425BD1026901928A4265DAE6
:1099800002003632127852076AD44269029202000B
:10999000029C40328C4270DA0100363109780907A6
:1099A00075D4002B7ED113789C46002B16D0010075
:1099B000061DF38F363101339BB2F387039109788B
:1099C00001270C003C40394200D188E01D2B05D90D
:1099D000039BB94319700023F38713700AF0E3FA6D
:1099E000434A0723904277D94249043B8D4273DBB7
:1099F000C8220133920095426EDC0198023B8842F6
:109A00006ADB013B904267DC02980433884263DBE7
:109A10000023904260DD06335EE0C822002352003E
:109A20009542A9DD030036331A7800239207A3D4A8
:109A3000012306001F00363632785408A7433C0045
:109A400002279C40BA432243327095E7C822019C0A
:109A50005200944299DD020036321278520794D4B3
:109A6000012306001C00363632789708BC43A70055
:109A70000424A2433A43327087E7C821029C49007C
:109A80008C428EDD010036310978090789D4010046
:109A9000012636310B78DF08BE430827F600BB43AA
:109AA00033430B701378032B00D97CE70133DBB20F
:109AB0001370012B03D10021031DD98773E7042BF9
:109AC00000D070E7020036321178033B0B4313706D
:109AD00000230430C3870B33180005B0F0BD092BF9
:109AE00000D87BE76346F487013B76E770FEFFFF13
:109AF000FF700200E0FCFFFFF0B5C369C1681A689F
:109B0000451D0400EB7F89B0114225D0002B57D1B1
:109B10000123A2791A4237D0002602226846A18882
:109B2000A6710AF0D2F8A31DDD7F012D2CD1FFF71D
:109B3000BFFB3300226A801A99410F000600A188FA
:109B40009F4203D1FA239B009E423BD30123042270
:109B500004A80AF0BAF817E00B2B01D80133EB7711
:109B6000EB7F082B0DD90122A37913420CD11343AB
:109B7000A188A37104A813000AF0A7F8FFF798FBC7
:109B80002062EB7F012BC3D90322A3791340012B61
:109B900014D1FFF78DFB0023226A801A9941994264
:109BA00002D10A4B984209D90223A279A188134312
:109BB000A3710522012304A80AF087F809B0F0BDBB
:109BC000013BCCE72B000322C2E7C046DB050000C7
:109BD00010B50400034B08330360FFF79FFB200020
:109BE00010BDC04648700200F0B5060000250F0009
:109BF000040085B002930AAB1B78083603930F4B21
:109C00002900083303600192858085711822300095
:109C100008F0C4FD39003000039A0CF0DDFF019B11
:109C2000029AA380A31DE771DA77631D25622000E5
:109C3000DD77FFF755FB200005B0F0BD487002004E
:109C40000048704716FCFFFF10B53320FEF736FEC4
:109C5000004810BD16FCFFFF002310B504008380F0
:109C600083710D482164083020608020C000A0610D
:109C7000E061206211002000E360236163616362A0
:109C8000A362E36223636363A363E36363640AF031
:109C900082FA200010BDC04660700200F0B5544E3C
:109CA0000500376897B0002F3DD10B231C2282217D
:109CB00006A80AAC00F080FF0B231D2283212000A0
:109CC00000F07AFF0B231B2284210EA800F074FF02
:109CD00008200DF04DF901223B00110004900BF01B
:109CE0006CFD1D2128000BF09EFA002824D0A388CB
:109CF00012AFBB80A379A268BB713E4B6020129368
:109D00000E23E3561492A289BB73BA810DF030F989
:109D100006230193173300933A002900049B0400A3
:109D200002F06EF93460344B314A1B681068002B26
:109D300000D0436417B0F0BD3C2128000BF0A1FA1D
:109D400000281BD0A38812AFBB80A379A268BB7187
:109D5000284B602012930E23E3561492A289BB7302
:109D6000BA810DF005F906230193363300933A00CA
:109D70002900049B040002F0B5FAD3E73C21280037
:109D80000BF023FA002829D0362202AB9B8E12AFAB
:109D9000BB8002AB9B181B780832BB71154BA4200B
:109DA000129302AB9B18109A1B781492059202AA88
:109DB000928F5BB2BA81BB730DF0DAF80623040010
:109DC0000293013B0193373300933A00049B29002F
:109DD00001F062FF084B1C604434A3E748200DF0FB
:109DE000C7F8062204990400FFF736FF9AE7C04639
:109DF00090250020047002008C250020F0B587B06B
:109E000001930EAB1B88060003930D9B0D0000937E
:109E1000019B0C9F0292002B3DD0002F02D1009B92
:109E2000DB0738D530200DF0A3F80400103009F01E
:109E300042FF2000243009F0C6FD029B1820258037
:109E400063800DF095F80500009B08220593019BA7
:109E5000002103600C30049708F0A0FC082204A93C
:109E6000281D08F0F3FB0D4B02226B6100230399C0
:109E7000E3602362E36233680A43300021005B68D9
:109E8000A560A2809847002805D0200009F028FE90
:109E900020000DF069F807B0F0BDC0462B4202006B
:109EA00070B58CB08360109B01604260C360040099
:109EB000184918000BF01FF9051E14D001001C22D0
:109EC000103105A808F0C2FB6A4608AB43CB43C279
:109ED0001B68136020680599069A079B0AF06DF9C4
:109EE00028000DF041F80C4B186800280ED00B4AE2
:109EF00005AB059200220692C03202926A4622CB3E
:109F000022C2230003220621FFF778FF20000CB0B5
:109F100070BDC0463C7D020080250020219F0100CD
:109F200082B0F0B50400EDB06420739372920CF02F
:109F3000EAFE052210A8110009F017FF954911A8A3
:109F4000FFF72EFB1925002221AB013D1A605A6054
:109F50009A600C33002DF8D11522290014A813950E
:109F600008F01CFCA0680AF0CEFCFF210A90A06853
:109F700000F0F8FB884FA06800F0BEFA0495089541
:109F80000995854B9F4203D0844B9F4200DBF7E04D
:109F9000A0680AF0BAFCA56881491AA8FFF7CCF9B5
:109FA00078221AA9280000F049FB1AA809F0E4FD5C
:109FB0000023794F04930326099B606801333340E3
:109FC00009930AF088F8050060680AF08BF800220F
:109FD000744B05929D420FDB013205922A00C83274
:109FE0000ADBAA22042192000591954204DC059621
:109FF000C82D01DC0222059200220692984210DB55
:10A00000012306930300C8330BDBAA2304329B0011
:10A010000692984205DC03230693C82801DC013B25
:10A02000069310A809F098FE5F4B00251E000793C9
:10A0300013ABEB5C012B05D172783178FE3310A89D
:10A04000FFF742FA01350236192DF1D16B4618227D
:10A050009A5E6B4610A81421595E099BFFF734FAEB
:10A06000002F02DB049B0F2B07D90023A0681A00E6
:10A070007430009310A909F085FE13AE079B059A72
:10A080001B78934221D1079B069A5B7893421CD19F
:10A090003378012B19D00C23089A0CAD53432800B8
:10A0A000002221680B930AF0A0F821AA94460B9B8A
:10A0B000634407CD07C301233370089B0133DBB230
:10A0C0000893049B0133DBB20493079B374A0233A6
:10A0D000079301369342D1D164200CF014FE089B03
:10A0E000643F3FB2182B00D84BE71A0021A91AA8E9
:10A0F0000AF08AFA6A461DAB23CB23C21B681360A1
:10A100001A991B9A1C9B20680AF057F8E568002DE5
:10A110000CD0274912A8FFF70FF91C2328001AAA10
:10A1200012A90BF01DF812A809F026FDA0680AF08C
:10A13000ECFB11A912A8A56809F0F7FD00221D4B40
:10A14000009212A901932800130000F019FA12A836
:10A1500009F0DEFDFA2080000CF0D5FDA0680AF0C1
:10A16000D4FB0A99A06800F0FDFA11A809F0D0FD0F
:10A1700010A809F0CDFD6DB0F0BC08BC02B01847C6
:10A18000002F03D0049B0F2B00D014E7A06800F031
:10A19000B3F910E7477D02008C3C0000D18AFFFF35
:10A1A0008C7D020058FDFFFFA17D0200D37D0200DF
:10A1B0003C7D0200DC050000F0B5040085B0637A48
:10A1C0009C46002B04D120000AF03CFA05B0F0BDFB
:10A1D000A37A266F01931023019AF35600259B184A
:10A1E00001229A402900F36803920293029BAB423A
:10A1F00031DDB068019B6843C01873694000E77A9D
:10A200001A181B5C5078E279012F14D1571E3F1A9F
:10A2100018003B004243606F52008218D2189379B5
:10A22000634500DD6346627B1A4202D00123AB40E6
:10A2300019430135DAE7022F07D0032FEAD1277A35
:10A24000013FFF1A03003800E4E7571EFB1A277A84
:10A25000013F381ADEE71123C943F356606C994079
:10A2600023691940039B19430CF00DFEA27B072ABA
:10A27000ACD8637B0C495B006373531CDBB290006A
:10A280004158A373022A03D808000CF031FD96E769
:10A29000064B2000236300236363054BE4622364C1
:10A2A00014300CF0F8FB91E78C700200B9A10100AA
:10A2B0002F46020070B50400104B250008330360E0
:10A2C000FFF72CF82000743009F022FD20006030E8
:10A2D00009F01EFD2000583009F04EFC20005030DF
:10A2E00009F04AFC064B1435280063610CF0C2FBF0
:10A2F000280006F029F9200070BDC046AC700200AD
:10A30000E8770200F8B500250400324B8580083359
:10A3100003608571143016000F0006F0FFF820006E
:10A320002D4BE562636125645030FFF76FF8200024
:10A330005830FFF76BF820006030FFF7B1F82000CD
:10A340000423F25E33682667590009B2743009F0BD
:10A350000CFD3368226FE3717368012623721023AA
:10A360006581A7802561D35691685918994204DD0B
:10A370003000984001330543F8E711230120D356FC
:10A38000D1685918994206DD02009A4026690133C6
:10A3900032432261F6E714200CF0EAFD2269002125
:10A3A0002A430123060006F045FBFF2322006372C7
:10A3B0000133A381002348326664A3732000137025
:10A3C000A366FEF78DFF0123A27920001343A3713A
:10A3D000F8BDC046AC700200FC770200F0B5437ACD
:10A3E000040085B0002B04D120000AF02BF905B041
:10A3F000F0BD837A066F01931023019AF35600256E
:10A400009B18012294469A402900F3680392029314
:10A41000029BAB422DDDB068019B6843C018736995
:10A420004000E77A1A181B5C5078E279012F10D1AE
:10A43000571E3F1A18003B004243606F52008218BB
:10A44000D2189379002B02D06346AB4019430135F3
:10A45000DEE7022F07D0032FEED1277A013FFF1A44
:10A4600003003800E8E7571EFB1A277A013F381A25
:10A47000E2E71123C943F356606C99402369194000
:10A48000039B19430CF0FFFC667AB31EDBB2FC2B76
:10A4900014D8FEF7D3FE0C4B0500236300230B48B2
:10A4A00063630B4BFF217043E462236406F09EFE5E
:10A4B00029004143200014300CF0EDFA637A012B9F
:10A4C00000D994E790E7C04645460200B603000075
:10A4D0002F4602001FB5012381881A00684609F043
:10A4E000F4FB012368461A00024909F0EEFB05B0AF
:10A4F00000BDC046FE0300001FB5030048331A78B4
:10A500000400002A0DD000221A70012381881A004D
:10A51000684609F0DAFB012368461A00034909F08E
:10A52000D4FB2000743009F017FC1FBDFF030000AE
:10A5300010B50400230048331A78002A07D01B788E
:10A54000012B04D00121024809F01BFAF2E710BDEB
:10A55000FF03000010B501210400072009F011FAE3
:10A56000064B984208D148342378002B04D0237836
:10A57000012B01D020BFF7E710BDC04616FCFFFF3E
:10A5800073B5079C0500002C1CDB060048363078AC
:10A59000002802D03078012816D106981BB2C0B22C
:10A5A0000090280012B2743009F0ECFB002C07D0A8
:10A5B0002B004A331C80002407234C352C80337039
:10A5C000200076BD014CFBE7014CF9E717FCFFFFCB
:10A5D00012FCFFFFF0B587B00D9C05000E001700C0
:10A5E0000393002C21DBFFF7A3FF2B0048331B78DC
:10A5F000DAB20292002B1AD1310005A809F095FBBE
:10A600000C9B3A0000932800039B019405A9FFF7D7
:10A61000B7FF05A809F07CFB002C03D02800FFF74A
:10A6200099FF029C200007B0F0BD024CFAE7024CF3
:10A63000F8E7C04617FCFFFF11FCFFFFF8B5040068
:10A64000171E1DDD060048363378002B02D0337804
:10A65000012B17D12200E3795632013B13702300FE
:10A660000025200054331D80503009F0E2FA230009
:10A670004A331F80022328004C3425803370F8BDF4
:10A680000148FCE70148FAE717FCFFFF12FCFFFF57
:10A69000F8B50400171E2DDD060048363278002A72
:10A6A00002D03278012A27D15D42069BFF331FD1A9
:10A6B0006B1D22001BB2643213802300200066331E
:10A6C0001D70603009F039FB230000226C331A70D2
:10A6D000954200D03D0023004A331D80079B002097
:10A6E0005A1E9341013F4C34053327803370F8BD27
:10A6F000069BDEE70148FAE70148F8E717FCFFFF91
:10A7000012FCFFFFF0B504000F0016001D0087B01B
:10A71000002A1FDDFFF70CFF230048331B78DAB255
:10A720000392002B18D1390005A809F0FEFA0D9B01
:10A73000320001930C9B05A9009320002B00FFF72A
:10A74000A7FF05A809F0E4FA2000FFF703FF03982C
:10A7500007B0F0BD0148FBE70148F9E717FCFFFF30
:10A7600011FCFFFFFF2902D8417200207047014809
:10A77000FCE7C04617FCFFFF13B5040004A80078EF
:10A78000009020000CF0D7F8002801D1207516BDEC
:10A790000048FCE70EFCFFFF13B5040004A8007896
:10A7A000009020000CF0AFF8002801D1207516BDF4
:10A7B0000048FCE70EFCFFFF7FB50D0011000F22E3
:10A7C0006A4404001E1E117015D0089B002B12DD78
:10A7D000012329000093FFF7DFFF002808D1009034
:10A7E000320029002000089BFFF7C6FF002800D098
:10A7F000024804B070BD0248FBE7C0460EFCFFFFF4
:10A8000017FCFFFFF7B506000D1E3ED00023022700
:10A8100004690193002C34D0AA88A38853403B429A
:10A820002DD13A4222D1A368AA68934227D12B881E
:10A83000002B02D022889A4221D16B88002B02D0B3
:10A8400062889A421BD1EB68E268934201D0002BE8
:10A8500015D17368002B01D020009847A2880C4BBB
:10A860001343A380019B0133019308E0A968A0680A
:10A870000AF089FF0028DAD1AB883B42D3D0E46AE2
:10A88000C8E7019B2000002B00DC0248FEBDC0464B
:10A890000080FFFF17FCFFFFF0B506000D0085B03C
:10A8A00000295DD001270469002C27D00221AA8845
:10A8B00000230A4202D0A3885B083B402268296833
:10A8C0008A4215D1A068A968002B0FD00AF05BFF5F
:10A8D00000280DD0EB68E268934209D10421625E42
:10A8E000A388002A06DB1F4805B0F0BD8842F1D0DE
:10A8F000E46AD9E75B045B0CA380F4E730692A883B
:10A900000100031E07D1356101236846164909F08D
:10A91000DCF90020E8E71C88944206D2DC6A1900C2
:10A92000002C0DD02300F6E723001C88944207D1A9
:10A930005F886C88A74203D8DC6A1900002CF3D129
:10A94000884209D10B889A4204D305D148886B8884
:10A95000984201D9E962D6E7CB6AEB62CD62D3E7D0
:10A960000248C1E716FCFFFFFD03000017FCFFFFD4
:10A97000064B10B51A00040008322C3302608360C5
:10A980000830FEF731FA200010BDC046C470020046
:10A9900008B4024B9C46083808BC604771A9010006
:10A9A00008B4024B9C46083808BC6047814A020044
:10A9B0000C4A002311002C32083110B5436083810A
:10A9C0008373826003614361836183830160040058
:10A9D0000830FEF7FBF9044B1A68002A00D11C600E
:10A9E000200010BDC47002008025002082B0F7B5A1
:10A9F0000125402609930CAB1B780469089201934A
:10AA0000002C38D008AA238812889A4201D0002B43
:10AA100029D108AA638852889A4201D0002B22D1FA
:10AA2000FEF738F90123002806D0C022A38813407E
:10AA3000C03B5A425341DBB2019A934219D10422DE
:10AA4000A35EA788002B14DB102208A9A01807F02A
:10AA5000FDFD374209D1FEF71DF9002805D0210080
:10AA60000748FEF7B9FAE46ACAE720000AF011F8CD
:10AA7000F9E70025F7E72800FEBC08BC02B018473C
:10AA8000934A020008B4024B9C46083808BC604751
:10AA90002F4C020010B5024809F00DF910BDC04658
:10AAA000B8200020F0B587B001930EAB1B880600DC
:10AAB00003930D9B0D000093019B0C9F0292002BB2
:10AAC0003DD0002F02D1009BDB0738D530200CF0A1
:10AAD0004FFA0400103009F0EEF82000243008F09E
:10AAE00072FF029B1820258063800CF041FA05005C
:10AAF000009B08220593019B002103600C30049702
:10AB000007F04CFE082204A9281D07F09FFD0D4BFD
:10AB100002226B6100230399E3602362E3623368DE
:10AB20000A43300021005B68A560A2809847002896
:10AB300005D0200008F0D4FF20000CF015FA07B073
:10AB4000F0BDC0467D4C0200F0B5160000258380A4
:10AB5000164A174B04008571026001814681057316
:10AB600018688C4689B0A8421DD0124A05950492F7
:10AB7000C02202926A4604AB82CB82C223002A0022
:10AB80006146FFF78FFFC022094B0A4918680292FD
:10AB90006A46069106AB079582CB82C223002A0043
:10ABA0003100FFF77FFF200009B0F0BD08710200FF
:10ABB00080250020A74D020030B500240373012337
:10ABC000034D84710560818082734373846030BD5E
:10ABD0000470020070B583790400DB0704D5806837
:10ABE000002801D00CF0C0F9A3799B0704D5A06818
:10ABF000002801D00CF0B8F9A3795B0709D5A02390
:10AC00000021154AA068DB00D150884201D00CF029
:10AC1000ABF9A3791B0708D5A568002D05D028003E
:10AC20000AF021FE28000CF09FF9A379DB0605D578
:10AC3000A068002802D00368DB6898476023A279E7
:10AC40001A4205D0A068002802D003685B689847C4
:10AC50000023A360A37170BD00700040F7B501260A
:10AC6000037B040033422CD0827961231100194008
:10AC700001911A4216D1FFF7ADFF18200CF078F9B8
:10AC80000E230500E356677B18220199009307F015
:10AC900085FD3A00280000990BF09EFFA379A5607E
:10ACA0003343A3716023A279A0681A4202D00BF04B
:10ACB00063FEFEBD436940681B681840431E98410F
:10ACC000F7E70148F5E7C04616FCFFFF012210B583
:10ACD00083794173134204D080680CF01BF8002084
:10ACE00010BD6022134203D080680BF04CFEF6E7E3
:10ACF0000048F5E716FCFFFF70B5040000250C4B7B
:10AD00000E000833858085710360210018300AF039
:10AD1000FBF82000210020300AF021F9054B20002B
:10AD2000A680E5802572E560256165611C6070BDC7
:10AD300018710200942500208379DB0702D5C160D9
:10AD4000002070470048FCE716FCFFFF8379DB0713
:10AD500001D5C06870470148FCE7C04616FCFFFFFC
:10AD600070B545690400002D22D0037A032B21D849
:10AD7000FFF7ECFFE86230200CF0FAF830220021F7
:10AD8000050007F00BFD002263699A622369934274
:10AD900007D1636923610020237A6561013323723F
:10ADA00070BD1A009B6A002BFBD163699362F2E7C6
:10ADB0000148F5E70148F3E717FCFFFF13FCFFFF2D
:10ADC000144B70B55A68144C002A03D000225A6004
:10ADD0000132A2601A69002A17D00021196180236C
:10ADE000DB000E4DE3582868012B0FD1A923DB00AF
:10ADF000E1584942FFF7A0FF2868FFF7B1FF2B6831
:10AE00005A69074BE2500123A36070BDFFF794FF1E
:10AE1000F9E7C046FC1000400010004094250020D7
:10AE20000405000070B505000C0008F03DFD002889
:10AE300004D1034A034BEC71D45070BD0248FCE7C7
:10AE4000001000402405000016FCFFFFF8B58379D0
:10AE500005000020DB0765D408F026FD002862D13C
:10AE60006E69002E08D130300CF082F804003022D8
:10AE7000310007F093FC6C6100222C4B01215A60D9
:10AE80008022D20511605A68002AFCD00622284B85
:10AE9000284C9A56284B0026E2500722043BE250E9
:10AEA0000833E650254A264B2800E250E979FFF79F
:10AEB000B9FF01220821234B2348E6500433E25016
:10AEC000224B234FE1500433E0500223214823500A
:10AED00021482750214F0438275018272048275051
:10AEE0006F6920482750C120800021501E498538B5
:10AEF000FF380B500B608021890060580E330343EC
:10AF000063501A4B5E6062605A68002AFCD00026CB
:10AF100001271E612800A760FDF758FF3000AB79BC
:10AF20001F43AF71F8BD1248FCE7C046FC0000406B
:10AF3000657F0200001000400C0500007469627516
:10AF40001C0500002C05000023000402140500006D
:10AF5000FFFF0000340500003C0500002110010047
:10AF6000540500000405000000E100E0FC10004072
:10AF700016FCFFFF03000069002809D00221054AE2
:10AF8000D167826A1A611A7A013A1A72024B196001
:10AF90007047C04604E100E000E100E070B5050044
:10AFA0000C0008F081FC00283AD1002C3AD023781C
:10AFB000262B37D8022201211B4BDA671B4A1C4B78
:10AFC0005861116159690029FCD000201949545079
:10AFD00058600130106058680028FCD000201861CB
:10AFE0000130906018690028FCD068695050002139
:10AFF00059610131116159690029FCD00021596062
:10B000000131516059680029FCD0002018610123EA
:10B01000C02193600222084B49005A501A6070BD4B
:10B020000648FCE70648FAE704E100E000100040AB
:10B03000FC1000400405000000E100E016FCFFFFEA
:10B0400017FCFFFF37B54C680500002C04D10C49F4
:10B0500008F029FF28003EBDA36A01A84B602278B2
:10B06000E36A033A211D08F04AFF20000BF07CFF41
:10B07000280001A908F017FF01A808F00DFFE9E773
:10B080008825002010B504008CB0002911D0262A94
:10B090000FD86846D31C037001234370FF334380ED
:10B0A00001A807F0D3FA69462068FFF777FF0CB0D4
:10B0B00010BD0148FBE7C04617FCFFFFF0B585B0A7
:10B0C00004000BF087FC204B1B785B0737D500266C
:10B0D000236CC5B20227DF5FBE420EDA200031B218
:10B0E000403008F0DBFDA84205D101230C211A00F5
:10B0F000684608F0EAFD0136EEE7260023004E36EA
:10B1000030884C331978013006F056F9230050335B
:10B110001B8889B28B4214D03388A26CD554636CDF
:10B120003180002B0BDB3288934208D101230222AD
:10B130005B42636402330C21684608F0C6FD05B02B
:10B14000F0BD01230322F6E71F2A00200121024A55
:10B1500013788B43137070471F2A00200223024A82
:10B1600011780B43137070471F2A00200221024AF6
:10B1700013788B43137070471F2A002010B50029E5
:10B1800003DB024B19600BF04BFC10BD982500202F
:10B1900070B504001D0004AB1E7805F07BF920009B
:10B1A0000E4B40302360FEF731F9230022000135B9
:10B1B0004C331D700023E1215832013616700A3AD3
:10B1C000A3646365138053809381D381013B200086
:10B1D00063644902FFF7D2FF200070BDB46F020024
:10B1E00070B505001400012A11D003004E331888F1
:10B1F000023B4018197806F0DFF869640025022C3C
:10B2000003D121000C2008F0BCFB280070BD014DCB
:10B21000FBE7C04617FCFFFF70B505005035040082
:10B220000A002B88002906D102004E3212889A4269
:10B2300008D10F4870BD01290FD102004E3211888C
:10B240009942FCD0A36C28884C341E5C21780130D4
:10B2500006F0B2F830002980ECE70229F2D10100B3
:10B260004E3109889942EDD10121FFF7B9FFE9E795
:10B270000CFCFFFFF0B5050007005C355A372B8842
:10B280003A88040085B09A421ED0104B1B781B07E9
:10B290001AD52B88426DD15C0BF0A0FB23002888C7
:10B2A00058331978013006F087F83B888EB2B342E4
:10B2B00009D1074901230222684608F006FD012151
:10B2C000200009F09EFE2E8005B0F0BD1F2A002050
:10B2D000FF030000F8B5114D04002B781B0705D5BE
:10B2E000012109F08EFE606DFDF734FF0826230072
:10B2F0002F785833B7432F701878FDF7F7FE606545
:10B30000002808D0230000205A335C343E431880C4
:10B310002E702080F8BD0248FCE7C0461F2A00209E
:10B3200013FCFFFFF7B50F0008A9040009780430EB
:10B33000002A01D1DD0715D5002F13D018264E4362
:10B34000B446A4446546EF6018250C36A619726011
:10B350000122B3604B1C5D43034B6419A36005F0ED
:10B360009BFCF7BD0022FAE78D4F0200F0B58BB0D1
:10B3700005930300060004000025583306930433A8
:10B38000039104925A360793049B9D4211DA069B5F
:10B3900037881978781C06F00FF8079B89B21B884C
:10B3A0008B4206D0039B626D5B5D0135D3553180C6
:10B3B000EAE7059B012B03D002210748FDF772FC49
:10B3C00001232000009321000023044AFFF7AAFF75
:10B3D00028000BB0F0BDC046FF03000075B20100AD
:10B3E000F7B5184C1F0023780500160001919B0744
:10B3F00024D4002A24DD002922D0FFF7AFFE2378D1
:10B400001B0714D50024019B321B191928003B008F
:10B41000FFF7ACFF39002418280009F0E3FD002FE6
:10B4200001D0A642EFDC2800FFF7A0FE04E02800D0
:10B43000FFF750FF041EE5D02000FEBD024CFBE7E5
:10B44000024CF9E71F2A00200DFCFFFF17FCFFFF4D
:10B45000F0B5164E0400337887B05B0705D50021A0
:10B4600009F0CFFDA06CFDF775FE04273378BB43D0
:10B470000393337023004C331878FDF737FEA06434
:10B48000002811D0230000254E331D805D80039BD2
:10B4900020001F4337702B002100054A0095FFF75D
:10B4A00041FF280007B0F0BD0248FBE71F2A00203B
:10B4B000BDB0010013FCFFFFF7B51F000123019190
:10B4C000274915000A7806001A4246D113430B702B
:10B4D00053070ED5002F12D00024012F1DD1AC42EE
:10B4E0002DDA01213000FFF797FE019B185501343A
:10B4F000F5E7FFF7ADFF041EECD02000FEBD3C00D9
:10B5000000213000FFF788FE164B98421AD0AC425B
:10B5100018DA019B18550134F2E7022F12D13000DE
:10B5200009F03FFDA84207DA300009F03AFD3A0081
:10B53000291A3000FFF754FE0024AC4205DBEC432F
:10B54000E4172C40FFF702FED7E702213000FFF797
:10B5500063FE019B18550134EFE7034CCDE7C0466D
:10B560001F2A00200CFCFFFF0DFCFFFFF7B5802712
:10B570007F053E697C690822113C74430500210067
:10B58000684607F063F8104B009A9A4219D000936E
:10B5900000230193796928001339714309F066FD8E
:10B5A000019A2800009909F079FD2100280009F08E
:10B5B0005DFD79692200133928007143B30809F051
:10B5C0005FFD0198FEBDC046FECA0000F0B50D004B
:10B5D000ABB000210D920700302212A81E0007F028
:10B5E000DDF8280007F04CFB431C0C93102B00D90E
:10B5F000B8E0202E00D9B5E02900380009F07BFD25
:10B600000B90002854D129000C9A12A807F01EF8BC
:10B6100032000D9916A807F019F880235B051A6906
:10B620005D690B92113D6A4338005E690D92FFF728
:10B630009DFF0D9B30220833002104001EA80F93AC
:10B6400007F0ACF831000B9B13395943380009F06F
:10B650000DFD00230F9E0C930E930C9BA34246DA24
:10B66000310030221EA806F0F1FF12A91EA807F033
:10B67000BBFA00282BD13D493800220010911194CB
:10B6800009F00CFD6A46099615AB23CB23C223CBE8
:10B6900023C223CB23C23800149B1299139A09F0BA
:10B6A0000BFD01230E930C9B303601330C93D4E732
:10B6B0000B9832000D99103006F0A4FF04000B988F
:10B6C0000BF052FC002C9ED120002BB0F0BD6A463E
:10B6D000099621AB23CB23C223CB23C223CB23C286
:10B6E00038001E991F9A209B09F0E6FCDBE7E64331
:10B6F0003021F61726404E430F9B9E190E9B002BC0
:10B700001CD10B9B981E05F0E7FCA0422CD01749DA
:10B710000134380022001091119409F0BFFC6A46F0
:10B72000099615AB23CB23C223CB23C223CB23C241
:10B7300038001299139A149B09F0BEFC38000D9939
:10B7400009F094FC80235B0559690C230B9A13398B
:10B7500063434A433800110002330D9A09F090FC0C
:10B760000024B1E7024CAFE7024CADE7FECA00008F
:10B7700017FCFFFF13FCFFFF8023F0B55B051A6980
:10B7800095B002925A6905910299113A51435C6948
:10B79000029B133C05005C430391FFF7E7FE061E86
:10B7A0003CD030220021083408A8039F06F0F6FFA1
:10B7B0002100280009F05AFC002308370193049364
:10B7C000019BB34220DA3900302208A806F03EFF80
:10B7D000059908A807F008FA00280DD11B49721E28
:10B7E00028000691079209F059FC01230493019B5C
:10B7F000303701330193E3E722000C23390028009E
:10B8000009F03EFC3034F2E7049B002B08D10F49CD
:10B81000320028000691079609F040FC0C4812E01F
:10B820002800039909F022FC80235B0559690C2349
:10B83000029A13394A43734311002800039A0233D2
:10B8400009F01EFC002015B0F0BDC046FECA000085
:10B850000CFCFFFF70B50400A280FA220023080050
:10B860000C49920008312160A3710B496061E260CC
:10B87000A360638209F03FFC051E09D0010020008F
:10B8800002221031123006F0E1FE28000BF06CFBB2
:10B89000200070BD30710200D37D020030B502255A
:10B8A0008379040087B02B4204D1FDF78FFAA37986
:10B8B0001D43A571200009F064FC00281CD06B46D4
:10B8C000DD1C280009F054FC2B78002B17D001A8B0
:10B8D00009F04CFC0321019AD3170B409B189B10D5
:10B8E0002382FDF7E5FCE368A18818180123A06016
:10B8F0001A0002A808F0E9F9002007B030BD0122C3
:10B90000064B1A60064A51680029FCD0002151609C
:10B91000044A1268019201225A60DBE700C000402D
:10B92000FCC0004008C50040022802D10122014BA2
:10B930001A707047202A002070B5064D04002B783D
:10B94000002B04D1044801F087FF01232B70200055
:10B9500070BDC046212A002029B9010070B50C0035
:10B9600007F0A2FF002810D00023134DA40A2B706B
:10B97000200009F01AFC002803D00A200BF0C3F9BC
:10B98000F6E72B78002BFCD070BD02210B4B0C4A44
:10B9900099508021C90058580028FCD0A120C0002F
:10B9A0001C5058580028FCD0002199508021C90013
:10B9B0005A58002AFCD0E7E7202A002000E0014086
:10B9C00004050000F8B50D0016001F0007F06CFF1D
:10B9D000002811D00023184C23703A0031002800B1
:10B9E00009F0E1FB002803D00A200BF08CF9F4E702
:10B9F0002378002BFCD0F8BD012380220F4C104986
:10BA0000D2006350A358002BFCD08022D200002328
:10BA100094469F4208DD980032582A506246A0584A
:10BA20000028FBD00133F4E7002363506346E3585A
:10BA3000002BFBD0DFE7C046202A002000E00140B9
:10BA40000405000008B4024B9C46443808BC60471B
:10BA5000AF510200FA21F8B50389C9000400594327
:10BA6000324809F0A5FEFA21890005F035FB304F78
:10BA7000A17A2081380009F09BFE230026002500D2
:10BA800022894C33A072A0361A808C3500232A22DA
:10BA90003178286808F046FF002844D11F235B2234
:10BAA0003178286808F03EFF00283CD120235C2232
:10BAB0003178286808F036FF002834D101232C2281
:10BAC0003178286808F02EFF00282CD101232D2280
:10BAD0003178286808F026FF002824D101232E227F
:10BAE0003178286808F01EFF00281CD1A17A3800A0
:10BAF00009F059FE0E22C3B23178286808F012FF0F
:10BB0000002810D1FA21238989005943074809F0F8
:10BB10004AFE012303432A2231782868DBB208F069
:10BB200001FF002800D00348F8BDC0465071020054
:10BB3000487102000EFCFFFF08B4024B9C464438DB
:10BB400008BC604755BA0100074B10B51A00040045
:10BB500008323C3302604364443008F0EAFA2000C3
:10BB600008F01AFA200010BDB071020008B4024BB0
:10BB70009C46443808BC604749BB010008B4024BEE
:10BB80009C46443808BC6047B9510200F0B5042512
:10BB9000837904008BB02B4204D1FDF717F9A37908
:10BBA0001D43A57120009030FFF758F80026B042E1
:10BBB0000FD12300A033197820000C2307AD009388
:10BBC0008C302B0001220068FEF7F6FD061E03D024
:10BBD0002C4E30000BB0F0BD0A2304AA9B182A7823
:10BBE0005A706A781A700022985EAA785A70EA78B9
:10BBF0001A700022995E03912A795A706A791A7034
:10BC000000229F5EAA795A70EA791A7000215A5E62
:10BC100004922A7A5A706A7A1A7000215A5E059242
:10BC2000AA7A5A70EA7A1F251A7000229B5EA27ABD
:10BC300003999C46514349425043CB172B405B1814
:10BC40005B11A361C3172B40181864235743FA17DD
:10BC50001540ED196A112262059A5B425343A367AE
:10BC600064236146049A40115A434B43E267221D04
:10BC7000E0612000D36708F001FA2000443008F0AA
:10BC80005FFAA6E70EFCFFFF08B4024B9C4644385F
:10BC900008BC60478DBB0100F7B51E00040008AB6F
:10BCA0001B881500019309AB1A8800910AAB31007B
:10BCB0001F88FDF777FD20003A0031004430FDF782
:10BCC000CBFF134B20001A003C336364230008327F
:10BCD0002260009A8C331A60AB8890308380AB79F5
:10BCE00083710C4BAA6803600E23EB56826022001E
:10BCF000A9899C32118083732300019AA033032108
:10BD00001A80FEF7E3FF2000FFF7A4FE2000FEBD2F
:10BD1000B071020004700200F8B5FA260189B6007D
:10BD200004007143254809F043FD310005F0D4F9C2
:10BD3000234FA17A2081380009F03AFD2500A07236
:10BD4000583500232A222978606C08F0EBFD002882
:10BD500032D110232B222978606C08F0E3FD0028F3
:10BD60002AD101232D222978606C08F0DBFD002800
:10BD700022D101232E222978606C08F0D3FD0028FF
:10BD80001AD1A17A380009F00EFD0E22C3B229782B
:10BD9000606C08F0C7FD00280ED121890748714367
:10BDA00009F001FD012303432A222978606CDBB2EC
:10BDB00008F0B8FD002800D00248F8BD1872020053
:10BDC000107202000EFCFFFF10B50400034B083395
:10BDD000036008F0E1F8200010BDC0467872020050
:10BDE0007FB50425837904002B4204D1FCF7EEFFD4
:10BDF000A3791D43A57120004830FEF72FFF0025D1
:10BE0000A8420DD1230058331978062302AE0093BF
:10BE100001223300606CFEF7CFFC051E03D00D4DF0
:10BE2000280004B070BD002104200222A37A3056FD
:10BE30007156B25659435A434343DB002362D20042
:10BE400023685242C90020009B6AA261E1619847C1
:10BE5000E6E7C0460EFCFFFFF8B504000F0019002E
:10BE600006AB1E8807AB15001A88FDF79BFC0F4B2D
:10BE70006764083323602300AA8848339A80AA792C
:10BE80009A710B4AA968A2640E22AA562165210064
:10BE9000A889543108809A730023A3712300583372
:10BEA0001E802000FFF738FF2000F8BD78720200E6
:10BEB0000470020010B50400034B0833036008F05F
:10BEC00038F9200010BDC0460C730200F0B5070021
:10BED0005C370023040010223978806C87B008F0AA
:10BEE00021FD214D03002800002B3BD10F2602AB82
:10BEF000F6180123397808220093A06C3300FEF76E
:10BF00005BFCA8422DD003223378134203D0642077
:10BF1000FCF7FAFFEAE7FA262189144DB6007143CF
:10BF2000280009F045FC310005F0D6F82081A02357
:10BF300011223978A06C08F0F5FC002811D1A36C0F
:10BF400021890393714328003F7809F02CFC0123D9
:10BF50001843C3B210223900039808F0E3FC00280C
:10BF600000D0014807B0F0BD0EFCFFFFAC7202002C
:10BF700070B508258379040086B02B4204D1FCF704
:10BF800025FFA3791D43A57120004C30FEF766FE06
:10BF9000051E0DD023005C331978062304AE0093F0
:10BFA00001223300A06CFEF707FC051E03D0134DE1
:10BFB000280006B070BD0E2332786B445A70727838
:10BFC00020001A700022995E64224A43A263B2786C
:10BFD0005A70F2781A700022995E642252425143DC
:10BFE0006163317959707179197000215B5E5A4330
:10BFF0002368E2631B6A9847DAE7C0460EFCFFFF3E
:10C00000F8B504000F00190006AB1E8807AB150039
:10C010001A88FDF721FE0D4BA76408332360230027
:10C02000AA884C339A80AA799A71094AA968E2646D
:10C030000E22AA5661652100A889583108801E8207
:10C0400020009A73FFF742FF2000F8BD0C73020036
:10C0500004700200F0B5FA250189234FAD0085B0C8
:10C0600004006943380009F0A3FB290005F034F807
:10C070001E4EA17A2081300009F09AFB636CA072F9
:10C08000029323005833218901931B7869433800B8
:10C09000039309F088FB07230343202203990298A6
:10C0A000DBB208F03FFC00281AD1019B222219784C
:10C0B000606C102308F036FC002811D1019BA17A96
:10C0C00030001F78656C09F06EFB80235B420343F0
:10C0D000232239002800DBB208F024FC002800D01D
:10C0E000034805B0F0BDC04640730200387302003B
:10C0F0000EFCFFFF10B50400034B0833036007F08C
:10C100004BFF200010BDC046B0730200F0B50425FF
:10C110008379040085B02B4204D1FCF757FEA37944
:10C120001D43A57120004830FEF798FD051E0DD077
:10C13000230058331978062302AE0093A822330057
:10C14000606CFEF739FB051E03D0144D280005B0C6
:10C15000F0BD1F200023F25ED31703409B1802227C
:10C16000B15E5B11CA17024052180421775E33801A
:10C17000F9170140A07A52114343C919728049113D
:10C180004243B18041435B42E36123685242200055
:10C190009B6AA26121629847D8E7C0460EFCFFFF68
:10C1A000F8B504000F00190006AB1E8807AB150098
:10C1B0001A88FDF7F7FA0F4B6764083323602300F2
:10C1C000AA8848339A80AA799A710B4AA968A2640E
:10C1D0000E22AA5621652100A889543108809A733D
:10C1E0000023A371230058331E802000FFF732FF85
:10C1F0002000F8BDB073020004700200F7B5FA2504
:10C2000004000189134EAD006943300009F0D0FAF3
:10C21000290004F061FF2700A36C208100935C37A4
:10C220003B7881B269433000019309F0BCFA602287
:10C23000C3B20199009808F075FB002807D10123CB
:10C2400062223978A06C08F06DFB002800D002480B
:10C25000FEBDC046E47302000EFCFFFF10B50400F3
:10C26000034B0833036007F064FF200010BDC04695
:10C270000C7402007FB50825837904002B4204D199
:10C28000FCF7A4FDA3791D43A57120004C30FEF7F7
:10C29000E5FC051E0DD023005C331978062302AEA1
:10C2A0000093E8223300A06CFEF786FA051E03D047
:10C2B0000B4D280004B070BD0223F25E96235B4252
:10C2C0005A4362630021725E20005343A363042338
:10C2D000F25E96235343E36323681B6A9847E8E7BB
:10C2E0000EFCFFFFF8B504000F00190006AB1E8816
:10C2F00007AB15001A88FDF7AFFC0D4BA764083398
:10C3000023602300AA884C339A80AA799A71094A3B
:10C31000A968E2640E22AA5661652100A8895831F5
:10C3200008801E8220009A73FFF768FF2000F8BD86
:10C330000C7402000470020010B50400054B0833B1
:10C3400003601C3007F018FC2000183007F014FCC4
:10C35000200010BD38740200FF23F0B52C4E8DB0C4
:10C3600033700023040069460088009303F0CEFF79
:10C37000002802D16B469B783370264D2B68DB6812
:10C38000002B07D1002320881A00190008F084FF31
:10C390000DB0F0BD3378032BF4D81F4901A8FCF78A
:10C3A000CBFF2B6801A9DD6804A807F03AFC280040
:10C3B00004A908F0CFFE0027050004A807F0DCFB65
:10C3C000BD421ED029002022103104A806F03EF9FB
:10C3D00028000AF0C9FD317804ABC90059180822B9
:10C3E00002A806F033F901230822208802A908F0E8
:10C3F00053FF0137002804D10C212088074A08F098
:10C4000049FF01A807F0B8FB002FBBD0C0E7C0462A
:10C4100084200020A8250020DB7D0200FFFF000013
:10C42000F0B58379040091B05B071BD5FCF740FFA2
:10C4300000232269801A9941994203D1F533FF33D1
:10C4400098420FD3A068002808D0354B1D8801F012
:10C45000FFF80368152229001B6A98470422A37974
:10C460009343A371A3799B0758D52E4E3368DB689D
:10C47000002B4FD02C4F3B78032B4BD8284B2B490C
:10C480001B8804A80193FCF757FF336804A9DD68F3
:10C4900008A807F0C6FB08A9280008F05BFE050005
:10C4A00008A807F069FB082302AAD3800198073B7C
:10C4B000063206A908F0F2FE002D08D0290020223D
:10C4C000103108A806F0C2F828000AF04DFD3D78AA
:10C4D00002ABDA88ED0008AB5D19280006A906F06A
:10C4E00091F8002813D00822280006A906F0AEF81B
:10C4F000336804A9DD6805A807F093FB2023280012
:10C5000008AA05A908F02CFE05A807F035FB04A829
:10C5100007F032FB0222A3799343A37111B0F0BD5F
:10C52000C8290020A825002084200020DB7D0200EF
:10C53000F0B50400150085B001930AAB1F880BAB62
:10C540001B78461C02930EAB1B78102203930B78CA
:10C5500003704B8A01314382300006F077F8656141
:10C5600000250122019B27836383039BE5832377B7
:10C57000029B2000F377A31CDA770C9B0C266362E6
:10C5800023000D9A283329001A705D7032009D70C7
:10C590002C3006F003F92000064B3200A36329007B
:10C5A000E563403006F0FAF82000034B2565E364AC
:10C5B00005B0F0BDB3520200A552020070B50D00E7
:10C5C00001F046F804000368002D09D15B69984723
:10C5D000FA2080006843074904F07EFDE08070BDCA
:10C5E0009B6898478542F3D2236820009B68984750
:10C5F0000500EDE771020000F0B507001500A1B0DD
:10C6000002C706006B4918A81C0008F04AFF2B1E41
:10C6100003D0280006F034FB83B2012204920022EA
:10C62000039202920232019200932A0018A9380064
:10C63000FFF77EFF33006049583318A8079308F0CE
:10C6400030FF231E03D0200006F01AFB83B2012224
:10C65000049200220392029202320192009322007D
:10C6600018A90798FFF764FF33005449AC3318A8A2
:10C67000089308F016FF269B002B03D0180006F045
:10C68000FFFA83B201220492002203920292023244
:10C6900001920093269A18A90898FFF749FF731C86
:10C6A000FF33474918A8099308F0FBFE279B002B8E
:10C6B00003D0180006F0E4FA83B2012204920022AB
:10C6C000701C03920292023201920093279A18A9D9
:10C6D000FF30FFF72DFF33005533FF33394918A8DA
:10C6E000099308F0DEFE289B002B03D0180006F00B
:10C6F000C7FA83B20122049200220392029202320C
:10C7000001920093289A18A90998FFF711FF3300A6
:10C71000A933FF332C4918A80A9308F0C2FE299BBD
:10C72000002B03D0180006F0ABFA83B2012204926A
:10C73000002218AC0392029202320192009321006F
:10C74000299A0A98FFF7F4FE204B1B780B93002BD5
:10C750002DD1079B1E491393089B0DA81493731C9E
:10C76000FF331593099B129716930A9B12AD1793EB
:10C7700008F097FE1D21492006AB1B7F1022237075
:10C7800006ABDB8D638206ABC918C01805F05EFFEF
:10C79000062323750B9B1E953068A38300F068FF6A
:10C7A000036821001B6898470122084B1A7030006B
:10C7B00021B0F0BD292A0000242A0000252A00000B
:10C7C000272A0000262A0000282A0000222A00200A
:10C7D0000A18000070B5002504000B4B8580083353
:10C7E00085710360C1601830FCF710FE20001C301A
:10C7F000FCF70CFE0123621CD377044A2000A560DD
:10C8000065611460A37170BD38740200A825002012
:10C81000FA2130B585B00400012302226846890060
:10C8200007F053FA074D2868002809D008F045FEA4
:10C830002188054B2A681980022391790B43937153
:10C8400005B030BDA8250020C829002010B50C0077
:10C8500007290FD8806800F0FBFE074B19570368C3
:10C860005B6C984743425841044B40421840044B8C
:10C87000C01810BD0348FCE7657F0200EA03000012
:10C8800016FCFFFF17FCFFFFF0B5A04C0D00A54400
:10C89000040007939AAB1B789D4909A8049306925C
:10C8A000FCF74AFD200029001C3007F0C2F9C02027
:10C8B000800000F0C7FF08200AF05AFB06000021A4
:10C8C0000EAF08F0EDFF15AD0C220021A660380078
:10C8D00005F064FF2B0007CF07C38E4B2900EB60E8
:10C8E000002330002B6108F0C4FFA06800F0B0FE08
:10C8F00008220021059016A805F050FF14200AF028
:10C9000037FB854B2A0015930300C2CAC2C3834B71
:10C91000059EC3600023A03603617368002B00D01E
:10C92000EEE07060A06800F0A3FE0822002106007F
:10C9300016A805F033FF14200AF01AFB784B159364
:10C94000030086CD86C3774BC36000230361336B3E
:10C95000002B00D0D6E03063A06800F079FE0822FA
:10C960000021059016A805F019FF14200AF000FB1D
:10C970006D4B15AD15932A000300C2CAC2C36B4BA1
:10C98000059EC3600023943603617368002B00D0BA
:10C99000BAE07060012604AB1B7C04AA334308A9EB
:10C9A0003000137408F07CFCA06800F071FE03688E
:10C9B0005F495B6A9847A06800F06AFE03685D49BA
:10C9C0009B699847A06800F063FE0023026800930B
:10C9D000176804993200B847049B002B0AD0200046
:10C9E00008F074FD032805DDA06800F051FE03681F
:10C9F000DB68984700260EAFB819073608F0A2FC8E
:10CA00001C2EF8D1183E04ABA0685E770A9700F0A0
:10CA10003FFE03680AA91B699847A06800F018FE4A
:10CA200003680AA95B6D9847A06800F011FE0368CF
:10CA30000021DB6D9847A06800F00AFE0368022120
:10CA40009B6D984700212000FFF700FF18200AF097
:10CA50008FFAA16800F054FA374B384A1B68A16876
:10CA60000393374B28001B6800250293354B1B6846
:10CA70000193069B1B689B190093334B12681B683C
:10CA8000FFF7BAFD30200AF073FA079AA16800F0A8
:10CA9000F9FAA06800F0DCFD03680CA99B6A9847CE
:10CAA000082304AA1384A068DB185384958400F03B
:10CAB000CFFD03680CA9DB6A98473100A06808F035
:10CAC000C3FC099A09219378A068921908F0CFFC59
:10CAD000A06800F0BDFD32210571A068FFF76EFD72
:10CAE00004AB1B7FAB4204D0A06800F0B1FD08F09E
:10CAF0001FFC09A807F040F895239B009D44F0BD5A
:10CB000003610EE7036126E7036142E7ACFDFFFF27
:10CB1000E77D0200C152020011C80100CF5202009D
:10CB200059C30100DD5202000B530200EB52020018
:10CB30004DCB010081CB0100A4250020A0250020C1
:10CB40000C2000209C2500201020002013B5062278
:10CB50006846FCF731FC094B1C68002C0AD069467A
:10CB600001A807F05EF8200001A908F0C9FC01A89F
:10CB700007F002F8684606F0FFFF13BDA825002065
:10CB8000002373B501AE0C0031000500019303F0E2
:10CB9000BDFB002802D1B278064B1A70064B18680C
:10CBA000002806D0054B1D8063425C41E1B208F0CD
:10CBB000AFFC73BD84200020A8250020C8290020D8
:10CBC00030B5284CA9B06A220D000DA8210005F04F
:10CBD0003DFD0DA903A8FCF769FC03A906A807F011
:10CBE000A4F801230193013BFF3B00930533FF337E
:10CBF000642206A92800FDF785FD06A807F088F83D
:10CC0000210019226A3106A805F020FD0522002422
:10CC1000110006AB04A807F0AFF804A905A807F0B7
:10CC200084F82300220028000194009405A9FDF750
:10CC3000D1FC05A807F06CF821002800FDF792FD53
:10CC400005340520FCF760F9FF2CF5D1FA208000AF
:10CC5000FCF75AF904A807F05BF803A807F058F8A6
:10CC600029B030BDE27E0200F0B59C4B95B0059234
:10CC70001A68082304000F00D16C06A80B43D36484
:10CC80009749FCF759FB974907A8FCF755FB220089
:10CC900000250DAE30001C3206A906F0E9FF310078
:10CCA00007AA08A806F0E4FF300006F065FF631C41
:10CCB000DD77A06800F0CCFC03685B6998477019C9
:10CCC000073508F03FFB1C2DF9D180230BADDB00AD
:10CCD000AB80A0680B9600F0BBFC036829005B6D7D
:10CCE0009847A06800F0B4FC036800219B6D98474A
:10CCF000A06800F0ADFC0300002506000A331F22E7
:10CD000000211800039305F049FD039B3000DD77F7
:10CD100008F005FB0621A06808F096FB089A092197
:10CD20009378A068043208F0A2FBA06800F090FCA1
:10CD3000C8210571A068FFF741FCA06800F088FCDD
:10CD40000581A06800F084FC08F0F2FA3800FDF7D5
:10CD5000D3FB2000FCF73AF839002000FFF730FF42
:10CD60003900200008F0E7FBFF2304950393626974
:10CD7000012316001E401A4232D05B4909A8FCF775
:10CD80000FFC09A90AA806F0D0FF00220AA9130087
:10CD9000019200923800FDF71DFC0AA806F0B8FFCA
:10CDA000049B002B47D1039B043B0393039B282B3D
:10CDB00044DC380007F0A9FD039B002B00DC04963F
:10CDC000059807F0A2F9002806D0012362699A436A
:10CDD000130004221343636109A806F099FF00259C
:10CDE00004226369134234D0FF213800C826FDF7BE
:10CDF000B9FC0025B600A36902229B5EAB4223DD8D
:10CE0000200029B2183006F049FF00230100380045
:10CE10001A007430FCF714FC3000FCF775F8380089
:10CE200007F073FDC820FCF76FF802226369134214
:10CE30000AD10135DFE7039B0433B6E7039BFE2BE2
:10CE4000BEDD00230493BBE7FA208000FCF75CF80A
:10CE500000250222636913421ED01E0006321640CE
:10CE6000134224D0214909A8FCF79AFB09A90AA872
:10CE700006F05BFF00220AA913000192009238001D
:10CE8000FDF7A8FB0AA806F043FF1948FCF73CF899
:10CE900009A806F03DFF174D6420FCF735F8164B46
:10CEA00001359D4200DC62E706F010FD5FE71349A3
:10CEB00009A8FCF775FB09A90AA806F036FF33009C
:10CEC00032000AA9380001960096FDF783FB0AA8F4
:10CED00006F01EFF09A806F01BFFDDE72C25002049
:10CEE000F57D0200057E0200077E02004C7E0200F6
:10CEF000983A00008C0A00008B0A0000897E02002C
:10CF00005A4BF0B508330360816004002520A9B0B6
:10CF100002AB10220391C018002105F03FFC0BAEBC
:10CF200001233200524833700E33195C0132117004
:10CF3000013BFAD2312202ABD218537811781B028E
:10CF40000B43252113AD22006B8202ABC918452388
:10CF50000C32029202A832781B1818002A70102294
:10CF600005F074FB029B642118930A230026012715
:10CF700002AA521813705B1802AA9B1831000C22E7
:10CF80001E702F77EE832E851EA819971C9605F02C
:10CF900005FC384B0C22310023A82193229605F082
:10CFA000FDFB354B02AA269346239B180322112032
:10CFB000DA7702AB0D32C01831002673279605953B
:10CFC00005F0ECFB02AB1F740F232C4806AA195C7A
:10CFD00001321170013BFAD21D2202ABD2185378F4
:10CFE00011781B020B432520112102AA0BAD127CE4
:10CFF0006B8202ABC9182A70C018102205F026FBFC
:10D00000012300272B7505AB11930398AF8300F024
:10D010002FFB036829001B68984713ABDB8BA068C4
:10D02000A38200F025FB03680097A18A029ADD68BD
:10D030000123A847A06800F01BFB0600142009F09C
:10D0400097FF012305000761082210C006A9079376
:10D05000069705F0FBFA0A4BEB60B369BB4203D1BC
:10D060002000B56129B0F0BD2B61F9E750740200D2
:10D070006D7F0200B3520200A55202007D7F0200C4
:10D0800097550200F0B500240500774BD9B008335E
:10D0900003608160C260754922008480847143A866
:10D0A00008F037FB2B0014330126042706931223C4
:10D0B000069A049601930097230043A903940294CF
:10D0C00019A8FFF735FA2200694943A808F021FBA7
:10D0D0000C232A000496103201930097230043A9E1
:10D0E000039402942EA8FFF723FA2200614911A8A5
:10D0F00008F00FFB2A001C32079208222300049636
:10D1000001920097079A11A90394029443A8FFF78C
:10D110000FFA2200584911A808F0FBFA542009F030
:10D1200027FF06001220012304212A00019011A8E4
:10D1300018320493009123000100039430000294FC
:10D140001700FFF7F5F930004C4B0822119311AB93
:10D150001900AE62F5623030129405F077FA484B50
:10D160000122B363330029331A7038000799033260
:10D170002C61EC6105F06AFA39000422069805F08A
:10D1800065FA5E22032302A95218D377B2225218FD
:10D19000D3770A000732FF32D377B21CD37719ABAB
:10D1A00008932EAB220037490993AC8543AB0CA8FA
:10D1B0000A930B9608F0ADFA28223C2002AB9B188C
:10D1C0001B7802AA1218137002AB5B8F123002AAEE
:10D1D00012181380292302A95B181900113802AB19
:10D1E0001022C01805F032FA5022042102AB9B181D
:10D1F0005822197002AB9B1808AF1797A8681C80BB
:10D2000000F036FA036811A91B6898477A2202AB2E
:10D210009B181B8854322B8402AB9B181B885432FA
:10D22000AB8402AB9B181B88A8686B8400F020FAC3
:10D230000700142009F09CFE0600134B046108222D
:10D2400020C00CA90C930D9405F000FA0F4BF3606D
:10D25000BB69A34206D12800BE61FBF7B7FD2800D9
:10D2600059B0F0BD3361F6E75C740200AD7F020097
:10D270008D7F02009D7F0200BD7F0200E556020007
:10D2800015560200CD7F020059D301003F5602001F
:10D29000F0B5040085B01F000CAB1B881030019363
:10D2A0000E00150006F007FD2000243006F08BFB71
:10D2B00026806580182009F05BFE082605003200F4
:10D2C0000AA902A805F0C2F92800320000212F6047
:10D2D0000C3005F063FA320002A9281D05F0B6F9FA
:10D2E000064B022220006B6100230199A5600A43CE
:10D2F000E360A2802362E36205B0F0BD69560200DC
:10D3000070B5040092B0806800F092F9826D02233B
:10D31000110019401A421AD1A38D002B17D00D4AC3
:10D32000E5680492102202926A46A185059104AB39
:10D3300041CB41C20A00230006A8FFF7A9FF2B68D2
:10D3400028009B6806A9984706A806F0C9FB12B0FA
:10D3500070BDC046A9560200F0B58DB005904B884F
:10D36000828C0E89CC689A420AD1032E38DD6288FD
:10D370002188012308A806F0A8FC043E0434F4E741
:10D38000059A528C9A422BD1032E29DD059B302021
:10D39000DF682388069363880793124B0893002362
:10D3A000099309F0E5FDC02302936B46050008AA26
:10D3B00003CA03C32800059B0699079AFFF768FF75
:10D3C0003B68290038005B689847002805D0280092
:10D3D00006F086FB280009F0C7FD043E0434D3E7BD
:10D3E0000DB0F0BDA9560200002815D000604160C4
:10D3F0008260C360046145618661C761444604621E
:10D400004C464462544684625C46C462644604638B
:10D410006E46466374468463002A06D0C46B043C9F
:10D42000043A25681560B442F9D18C6BA6464E6B60
:10D43000B546002B06D0CC6B043C043B1D68256030
:10D44000B442F9D10C6BA446CC6AA3468C6AA246BE
:10D450004C6AA1460C6AA046CF698E694D690C6979
:10D46000CB688A68086849687047006041608260DC
:10D47000C360046145618661C761444604624C46ED
:10D480004462544684625C46C462644604636E46E9
:10D49000466374468463C46B043C043925680D609C
:10D4A000B442F9D1C769866945690469704700606B
:10D4B00041608260C360046145618661C761444622
:10D4C00004624C464462544684625C46C4626446CC
:10D4D00004636C4644637446846304697047846BD8
:10D4E000A646446BA546046BA446C46AA346846A58
:10D4F000A246446AA146046AA046C769866945698E
:10D500000469C368826800684168704710B5041EEA
:10D510000CD005F0B5FB431EE318A34208D92278CE
:10D520001978013B21705A700134F6E7014810BDAB
:10D530000020FCE717FCFFFFF0B585B00D1E009042
:10D5400029D000260A27C217141A4B1E54400393F1
:10D550002000029639000136019603F02DFFCB170B
:10D56000C9185940039B303120009955390003F008
:10D570003DFE041EECD1009B002B04DA2D23029EFD
:10D58000019A0236AB5400232800AB55FFF7BEFFCB
:10D59000200005B0F0BD014CFAE7C04617FCFFFFC4
:10D5A0000268084B406810B5C018C000101803008E
:10D5B0009A4205D81C688C4202D31800083BF7E752
:10D5C00010BDC046FFFFFF1F70B5064D04002B685D
:10D5D000002B02D108F055FB286023689B00EB5814
:10D5E000636070BDBC25002070B500280ED10D4DC4
:10D5F0002E68002E08D1083009F0BAFC040006603D
:10D600004660FFF7E1FF2C60286870BD064A0123E1
:10D61000116806480C001C401942F6D103604460B2
:10D620001360F2E7B0250020AC250020B4250020CF
:10D63000436810B50400002B02D1044809F098FAA1
:10D64000606803681B69984710BDC046DD7F020013
:10D65000436810B50400002B02D1044809F088FA91
:10D66000606803681B69984710BDC046DD7F0200F3
:10D67000436810B50400002B02D1044809F078FA81
:10D68000606803689B69984710BDC046DD7F020053
:10D69000436810B50400002B02D1044809F068FA71
:10D6A000606803685B6A984710BDC046DD7F020072
:10D6B00010B5040001F08AFD034B1B68002B01D05C
:10D6C0002000984710BDC046C4250020F0B58BB09F
:10D6D000050002F055FC002000F0BEFB03680700C7
:10D6E0001B6998473B6804009B69380098473B6872
:10D6F00006005B6A380098470200288810380B281B
:10D7000061D803F0D5FC063D6060605A60606066D9
:10D710006078AF882000390008F015FD22006B7B8F
:10D72000583201931378A8799C46022361460B4333
:10D73000137004AB1F80012304AA93701300D070F0
:10D74000019AE91D9A722B000622163305A8099347
:10D7500004F07CFF29000B2004AB06220E31C01818
:10D7600004F074FF94346368A360A06800282AD092
:10D77000C36804A99847A368002BF4D01B69F3E79A
:10D7800020002F49AF8808F0DEFC2200022058322A
:10D790001378A9798343137004AB1F809970A03468
:10D7A0006368A360A06800280DD0C36804A99847E7
:10D7B000A368002BF4D01B69F3E75369002B02D058
:10D7C000A888A91D98472900300008F090FD0BB0EB
:10D7D000F0BD636E002BF6D0AF79A366A06E002873
:10D7E000F1D0C36839009847A36E002B01D1636E56
:10D7F000F3E71B69F1E701220D27AB7BE91D1A4016
:10D8000001925A07920F0292DB08062204A8EF57F2
:10D81000039304F01BFF019A04ABDA716A46127A93
:10D820009F711A726A46127B20005A722B008C3448
:10D830000F3307938030236804A99847C3E7C04695
:10D84000FFFF000003000720D72B02D90020014A68
:10D8500013607047C0250020014B18607047C04618
:10D86000C42500207FB58022A323D205DB00D35836
:10D870000820DB0700D4053048221C4B1C4901F06E
:10D88000E9FE00280AD080B2002807D1BFF34F8FED
:10D89000184B194ADA60BFF34F8FFEE70123049358
:10D8A000164B04A81B680193059308F008F800289C
:10D8B00002D0072007B000BD02A807F0FEFF002835
:10D8C000F7D102A907F0F7FF0028F2D10C4801F0C8
:10D8D000F1FE80B20028EDD10A4801F0F5FE80B2D9
:10D8E0000028E7D100F042FBE4E7C046C35802003D
:10D8F000C825002000ED00E00400FA05C025002046
:10D90000CDD60100B1D6010080B2002807D1BFF307
:10D910004F8F034B034ADA60BFF34F8FFEE7704728
:10D9200000ED00E00400FA0500487047FFFF00002A
:10D93000F0B597B00593036807AC1B680491039397
:10D94000110023000600A1C9A1C30025D368290046
:10D950000C220CA80A930B9504F020FF35200B4BEA
:10D9600011AF0F9304AB29001022C01810953D7021
:10D9700004F014FF059B7D8222000093300004997F
:10D98000039C01970CABA04717B0F0BDE55902000E
:10D99000FC3070B5046C0500002C0DD1242009F07A
:10D9A000E7FA064B44608361054B8460C460046100
:10D9B0004461C46103602864286C70BD487502002E
:10D9C00030760200FC3070B5C56B0400002D11D11B
:10D9D000342009F0CDFA084B85604360074B456160
:10D9E0000361074B0562C361064BC5628362064B48
:10D9F000E0630360E06B70BD78750200687502003B
:10DA0000D8750200E8750200F8750200064B70B583
:10DA1000040003604068002804D0056909F0A4FAF6
:10DA20002800F8E7200070BDAC740200064B70B50A
:10DA3000040003604068002804D0056909F094FAE6
:10DA40002800F8E7200070BD7C740200064B70B51A
:10DA5000040003604068002804D0056909F084FAD6
:10DA60002800F8E7200070BD8C740200064B70B5EA
:10DA7000040003604068002804D0056909F074FAC6
:10DA80002800F8E7200070BD9C740200064B70B5BA
:10DA9000040003604068002804D0056909F064FAB6
:10DAA0002800F8E7200070BD48750200064B70B5ED
:10DAB000040003604068002804D0056909F054FAA6
:10DAC0002800F8E7200070BD98750200064B70B57D
:10DAD000040003604068002804D0056909F044FA96
