:020000021000EC
:108000000040002091000200CD000200CF000200DD
:108010000000000000000000000000000000000060
:10802000000000000000000000000000D10002007D
:108030000000000000000000D3000200D500020094
:10804000D700020005AE01004D070200D700020074
:10805000D70002000000000009010200D700020062
:10806000D700020025090200D5050200D700020052
:10807000D7000200D7000200D7000200D70002009C
:10808000D7000200D7000200D7000200D70002008C
:10809000D7000200FDEE01007DF00100D7000200D4
:1080A000D7000200D700020000000000000000001E
:1080B00000000000000000000000000000000000C0
:1080C0000448054B10B5834203D0044B002B00D06D
:1080D000984710BDB0200020B02000200000000014
:1080E00006480749091A8B10C90FC91810B549105D
:1080F00003D0044B002B00D0984710BDB0200020C7
:10810000B02000200000000010B5074C2378002BA1
:1081100009D1FFF7D5FF054B002B02D0044800E042
:1081200000BF0123237010BDC82000200000000004
:108130004C7B0200054B10B5002B03D004490548C9
:1081400000E000BFFFF7CCFF10BDC04600000000FC
:10815000CC2000204C7B0200402292029A1A9246C8
:108160007047C046154B002B00D1114B9D46FFF7C1
:10817000F3FF00218B460F461148124A121A0AF0EB
:1081800047F80C4B002B00D098470B4B002B00D02E
:1081900098470020002104000D000B4809F0C8FE9C
:1081A00009F00EFF200029000EF00CFA09F0DEFEA7
:1081B0000000080000000000000000000040002057
:1081C000B02000207C2A0020991F0200F7B50A0089
:1081D000030010320C781C704C785C708C789C70AA
:1081E000CC780431DC7004339142F3D1124B042279
:1081F0009C46124E0327037B457B847BC17B3A421E
:1082000009D16746755D0195355D745CF15C930835
:10821000FB5C019F7B40077801327B40037443780D
:108220005D40837845745C40C37884745940C17460
:1082300004302C2ADED1F7BD76740200817402006E
:10824000F0B50A0004000F0089B0010000200AF018
:10825000AFFF0126231D01932500230018001A00FB
:108260001030029010783749085C10700298043280
:108270009042F7D1019A01339A42EFD16279637843
:108280006270627A6271627B63736272A27AA378AF
:10829000A270A27BA372A379A271E27BA373E3789D
:1082A000E270E27AE273E279E371E2720A2E41D07F
:1082B0002300103307932B78029302986B78584071
:1082C0000393AB780493EB780593059A049B534092
:1082D0000693434001930AF085FF029B5840019B9F
:1082E00058402870049B039858400AF07BFF039B7A
:1082F0005840019B5840687006980AF073FF049B31
:108300005840019B5840A870059B029858400AF0BD
:1083100069FF059B5840019B5840079BE870043556
:10832000AB42C8D130003A00210001360AF040FFCC
:10833000F6B28FE73A00210030000AF039FF09B0A9
:10834000F0BDC0468174020010B50400034B036009
:1083500040300BF082F9200010BDC0465C6902007D
:1083600010B50400B8B00F2268460B4909F0A8FE0A
:1083700010220A4904A809F0A3FE694604AA08A825
:108380000AF042FF20000AF0ADF92100020008A81F
:108390000AF046FF38B010BD507402005F7402004E
:1083A00010B5174B88B0196805A80BF000FB07A89B
:1083B000144902F015FE07A905A80BF007FB07A852
:1083C0000BF0CBFA05A80BF010FB0400FFF7C8FF79
:1083D000210006A800F0EAFF06A907A80BF092F911
:1083E000782207A9084802F04FF907A80BF035F9E1
:1083F00006A80BF032F905A80BF0AFFA08B010BDD3
:1084000004200020782400200022002070B5134DA5
:10841000280000F093F8124C2800220011490EF0B9
:1084200070FA00221E2110480BF0E1FF0F4D0223CD
:1084300003226421280002F0E1FB220028000C49FD
:108440000EF05FFA0B4D0C49280000F0BDFF28002C
:1084500022000A490EF055FA70BDC04610210020D6
:108460000020002081840100F8200020E820002066
:10847000F5310200E4200020707402005B36020037
:10848000CB23144A9B0010B5C2501C330400C01803
:108490000BF0E3F8D1239B00E0180BF0DEF820008E
:1084A0009130FF3001F090FB20006930FF3001F087
:1084B0008BFB2000F03001F0F9FE2000D03002F0FC
:1084C00079FA2000643007F041FD201DFFF73CFFE2
:1084D000200010BDE86D020037B5144800F0E4F844
:1084E000134D3921280002F0BFFC30200EF014FAA1
:1084F000102304000921009301220E4B0BF047F8D2
:1085000021000D4802F0EAF9002805D020000BF008
:1085100058F820000EF0FCF92800FA2402F0B8FC0C
:10852000A400200000F02AFDFBE7C0461021002037
:1085300060240020A1830100E02100201423F0B575
:10854000040093B0192200931821043002F072FD48
:1085500023002500260064331800B435132110933E
:10856000B83607F0FFFC28000CF0B4FA00221E21F8
:1085700030000BF03CFF2000D03002F03BFA23002B
:10858000F03307211800454A119301F0B7FE20008F
:108590000027012369301A0011210097FF3001F0F4
:1085A0001FFB20009130012302221A210097FF3087
:1085B00001F016FB2000B930022201210323FF3015
:1085C00002F0E4FA300001F011F9E4235B00E0501E
:1085D000300001F05FFBE6235B00E0500100E42285
:1085E00020005200D130119BA2580095FF3001F0BD
:1085F00053FC2000E13029000822FF3002F0B6FED3
:10860000782320000F93013B0E93033B0D93013B16
:108610000C93013B0B93013B0A93013B0993013BF4
:108620000893013B0793013B0693013B0593013BF4
:108630000493013B0393013B0293013B0193F93007
:10864000013B652200936421013BFF300BF0F0FEFB
:10865000CB239B002900E01803F048FED4239B00A5
:10866000E018092102F06AFBDE239B00E750109816
:10867000032127700DF07CFE230022002000084912
:108680009C33A0321C6082C2064A02215A618030AB
:10869000012207F0EBFD200013B0F0BD6469020079
:1086A0009B320200853202000278F0B501231700E8
:1086B000040091B01F401A4263D10300D033180068
:1086C000049300F0CBFA00F0DDF930200EF024F92D
:1086D000050010300BF050F8280024300AF0E4FEBA
:1086E0006A4B18202B600EF017F90600684B082221
:1086F000390004600C300E930F9709F089FD0EA924
:108700000822301D09F0DCFC624B29007361122342
:108710000498AE60EF60AB802F62EF6202F0DEF88B
:10872000002805D028000AF04CFF28000EF0F0F8D1
:10873000012326002278B4361343237056493000B3
:108740000CF0CEF900255549039030000CF0C8F923
:108750002F000590642000F011FC0295230069337E
:10876000FF33180006930BF03DFA00280BD1039B52
:10877000002B12D1059B002B0FD14949494800F02D
:10878000C1FC11B0F0BD20009130FF300BF02AFA8F
:108790000028ECD0029B182BE9DC20006530FF2379
:1087A00039B22AB2FF3000F08BFE322000F0E6FB37
:1087B000029B01370133FFB20293052F02D100273C
:1087C0000135EDB2029B192B0AD0039B002BC5D0BB
:1087D0003000314902F05CFD03980EF099F802E098
:1087E000039B002BF4D1059B002B02D018000EF048
:1087F0008FF82B492C4800F085FCCB239B00E31815
:108800000793DE239B00E3580893002B36D100F03A
:1088100059F801000BA800F0D7FD0AF0C4FD08903C
:108820000AF0C1FD6B460990198C0DA80AF031FFC2
:10883000099B0EA8190C0AF02CFF0EAA0DA90CA872
:108840000AF077FF0EA80AF008FF0DA80AF005FF4E
:1088500001230CAA0BA907980093049B03F0A0FD29
:108860000CA80AF0FAFE0BA80AF0F7FECD239B0035
:10887000E3580893DE23089A9B00E2502100069AF1
:108880000798F03103F07CFF68E7C046FD03000065
:108890000D330200CD320200817502008C7502009A
:1088A0000020002008000020001C0020BFF34F8F94
:1088B000024B034ADA60BFF34F8FFEE700ED00E0A2
:1088C0000400FA05F0B58BB003AF19223800154942
:1088D00009F0F6FB0023144D05266B7180235B0520
:1088E0005B6E2C000093012301933100009808F087
:1088F000B3F90800019908F029F90522009B5643B5
:108900001B1A0093019B534301932B1B5343FB18EA
:108910001B5C013C6371054B9C42E6D102480BB0E5
:10892000F0BDC046D2750200B6290020B129002052
:10893000F0B595B01822002104000EA809F068FCDB
:1089400013210EA80DF024FE03210EA80DF0C3FE86
:10895000464B1B68002B00D10133DBB20093002192
:108960000123434A09A807F0F1FDFA239B009C422A
:108970009B411C4072B63F4B64211E683E4B200059
:108980000593052508F06CF96843503030180A212A
:108990000690200008F064F90A2108F047FA6943BC
:1089A00050317118200007910A2108F03FFA6943FD
:1089B00050317118802600240891B601009B002BCD
:1089C00052D004AD0027032C02D180260024B6012A
:1089D0006B682A4A02936300D318002201925878E8
:1089E0000299095C039119788C4610216046014177
:1089F0000398014204D00120904001990143019164
:108A000001320633092AEAD1019B2A68D9431C4B5B
:108A100009011940029B934224D1312F22DC00210D
:108A200009A80DF011FFFA23139A0F99DB001068C3
:108A3000014219D0013B002BF9D1FA23013401374F
:108A40007600E4B25B009F42BDD1043508ABAB4277
:108A5000B8D1064B1B68002BB0D0009B013BDBB2AA
:108A60000093ABE73143DBE7FFF720FF90240020C2
:108A7000F0FF00000820002021760200EB750200C4
:108A8000F01F0000F8B50023124C23600AF07DFCB3
:108A9000002808D0042120000AF073FC002801D02F
:108AA0000D4B2360F8BD0123A12704210B4A0C4D77
:108AB00013602368FF0068606E68002EFCD0D659F2
:108AC0001B02013933430029F5D123600123536090
:108AD000E8E7C0468C240020ED5EBC0B00D00040CF
:108AE000FCD000400B4B70B51C68002C10D0656D9D
:108AF00000F018FCA36C002901D1834206D82000A5
:108B00000AF09AFC200004490AF086FC2C00ECE7ED
:108B100070BDC04698240020B8240020F0B595B060
:108B200007932A4B04AC1E68049005910692002E10
:108B300049D0274B678825881C6800230293002CA6
:108B40002DD0636D23480393A36C190C9AB20B00CC
:108B5000854214D12048824211D1002901D0B94266
:108B60000BD1029B002B08D120000AF065FC2000ED
:108B70001A490AF051FC01230293039CDFE7002A03
:108B800001D09542F9D1002901D0BB42F5D1200096
:108B90000AF052FC200011490AF03EFCEDE7104BB0
:108BA000EB18012B0FD910233A002900009308A8D5
:108BB0000C4B0AF0ECFC336830009B6808A998471E
:108BC00008A80AF0FEFC15B0F0BDC04694240020B1
:108BD000C8240020FE030000FF030000B82400208A
:108BE00002FCFFFF1D8B010010B572B60E4B1C6816
:108BF000002C0ED020000AF01FFC0023E3640B4B76
:108C0000E36372B60A4B1A681C60A26562B6200064
:108C100010BD62B65C200DF07FFE5C2200210400D6
:108C200009F0F6FAE9E7C046C02400200040002021
:108C3000BC240020074B10B51C68E36CDB0706D58D
:108C4000FFF7D2FF044B1860002800D0040020007A
:108C500010BDC046CC2400209C240020F7B51E4C3B
:108C60000123227816001E401A4233D11B4D286082
:108C7000FFF7BAFF1A4B1B4918600AF0CDFBFFF74C
:108C8000B3FF194B1860194B4363194B8363286872
:108C900000280FD0C023174F3200174900933B0024
:108CA0000AF094FBC023009332003B00134928686C
:108CB0000AF08CFB0C200DF02FFE002383808371C3
:108CC0000F4B03600F4B836000F044FB01232278BD
:108CD00013432370F7BDC046BC2900209424002014
:108CE000CC240020B8240020C4240020FC3F002015
:108CF0009D3402001D8B0100FF030000FE030000F5
:108D000084690200E58A0100024B187801231840AB
:108D10007047C046BC290020F7B5134F04003B68DC
:108D20000E00002B1ED0114B1B78DB071AD5FFF766
:108D300081FF05003304234383640AF07DFB280090
:108D40000B490AF069FB0B4B0025E318012B07D9EF
:108D5000C023009332002100074B38680AF036FB2D
:108D60002800FEBD054DFBE794240020BC2900200F
:108D7000C824002002FCFFFF1D8B010016FCFFFF32
:108D8000F7B506000D0017000193002802D100245A
:108D90002000FEBD0029FAD0FFF726FF041EF6D002
:108DA000074B019A43630660064B45608760002AC3
:108DB00000D0054B20000549A3630AF02DFBE7E72F
:108DC000FC3F00207734020085340200B8240020E4
:108DD00070B5074B0E0011001A7805000123100032
:108DE00018401A4203D032002800FFF7C9FF70BDB7
:108DF000BC290020F8B50500EFF30884C36B006CB4
:108E00001C1B6B6C1B1A9C420FD91F23074E20346E
:108E100037689C43002801D000F0D6F9200000F00C
:108E20009FF92864001968643760F8BDCC240020DD
:108E3000024B1868434258417047C046B82400208E
:108E40000300002210B5044994006058002801D0A6
:108E50000132F9E7635010BDA0240020002310B5B3
:108E6000044A99008C58844201D00133F9E700206C
:108E7000885010BDA024002010B50024084BA2008B
:108E8000D058002802D003685B6898470134062C4C
:108E9000F4D1044B1B68002B00D120BF10BDC0468D
:108EA000A0240020B82400200122F8B52C4B1B7808
:108EB00013421CD02B4D2C68E36C134218D00227B0
:108EC0003B43E364284B1E680423F26C30001343D9
:108ED000F364636BF363FFF78DFF3000716C04F094
:108EE00050F82868C36C3B4201D004F084F8F8BD08
:108EF0001E4F1F4E3A683068002A0AD128601B07AF
:108F000012D52C60FFF7B8FF3B68002BFAD02B601E
:108F10000AE0216DB94219D1616D002900D111001B
:108F200029602A688242EAD029688C42DFD03368FF
:108F300099420DD10F4B4B630F4B8B632000FFF712
:108F400059FF296820004B6C626C06E02A60E8E754
:108F50009C42F3D1002210004B6C03F0D1FFC6E716
:108F6000BC290020CC2400209C240020B824002010
:108F7000C4240020FC3F00209D34020070B50C4B3F
:108F800004001B78DB0702D40DF09EFB70BDFFF7D9
:108F900051FE050000F0C6F92418AC6428000AF060
:108FA0004BFA280003490AF037FAFFF77DFFEDE797
:108FB000BC29002098240020F8B51B4B1B78DB0748
:108FC00027D50024194E30680AF036FA184D2B6860
:108FD000002B02D05B6D0134FAE7032C0ADD2F6809
:108FE000013C7B6D386C2B6000F0EEF8380000F02F
:108FF000EBF8F2E7290030680AF00EFA72B60D4974
:1090000032680B68934206D19B6D0B6062B6FFF726
:109010004BFFF8BD0B00002BF8D0996D8A42F9D1B7
:10902000926D9A65F2E7C046BC290020CC2400204E
:10903000C0240020BC24002010B5034B1B78DB07A4
:1090400001D5FFF7B9FF10BDBC290020F7B5050019
:109050000C00002833D001261B4B1B78334230D044
:109060001A4F07233868C26C1100194000911A4248
:1090700007D021002800164AFFF7AAFE0025280085
:10908000FEBD03F0A0FF3A680221D36C180008402F
:1090900001900B4203D001318B43D364EEE733439D
:1090A000D3642000A8473A68019DD36C1900B143EE
:1090B000D1645B07E3D52000FFF7BEFFDFE7054D76
:1090C000DDE7054DDBE7C046BC290020CC240020AD
:1090D0003990010017FCFFFF16FCFFFF020010B5DE
:1090E000014B12CB12C210BDD0240020034B1A68D2
:1090F000034B1A607E225A607047C0460820002049
:10910000D0240020F0B5124E03003278022A1BD082
:1091100081421BD90C1A072C18D90D0005430327CF
:10912000280038403D4211D172B6BA40094DA4081A
:109130005351AA1851608022120614431C603378E0
:109140000133337062B6F0BD0348FCE70348FAE729
:10915000BE290020D824002013FCFFFF17FCFFFFCE
:1091600070B5041E23D0124D124E2B78002B0CD15B
:10917000114912483370FFF7C5FF114B984202D1D5
:109180001E20FFF7D5FB01232B7000253378AB425F
:1091900009DD0C49EB002000C9180AF089F9002804
:1091A00005D10135F2E71420FFF7C2FB002070BDA6
:1091B000BD290020BE29002000380020802A002080
:1091C00017FCFFFFD824002010B5002817D000227C
:1091D0000F4B19780F4B914215DD1C6884420FD25A
:1091E0005C6884420CD9041F2368002B02DC1E201B
:1091F000FFF79EFB802322681B061343236010BDEC
:1092000001320833E7E71E20FFF792FBF7E7C0467D
:10921000BE290020D824002070B5051E14DD0B4E99
:109220000B4C3368002B02D020680DF004F9FA21B2
:1092300020680024074B89008361C462694335605C
:109240000DF00AF9200070BD0348FCE7E824002077
:10925000182500200193010017FCFFFFF8B5114FFE
:1092600005003E68002E0AD130200DF055FB0400A9
:1092700006F0E0FE0C4BA6612360E6623C600B4EFC
:109280003368002B09D110200DF046FB04000DF0CF
:109290002FF9200034600DF005F92800FFF7BCFF1E
:1092A000F8BDC0461825002090710200142500204A
:1092B000014B18687047C046E824002070B50D4C7B
:1092C0002368002B03D00C4B1B68002B02D1062017
:1092D000FFF7C4FF20680DF0FCF802000749C31730
:1092E0000D684E685219734120680A604B600DF09A
:1092F000F6F870BD1425002018250020B0200020AD
:1093000010B5FFF7DBFF0024054BA200D058002862
:1093100002D003681B68984701340A2CF4D110BDB1
:10932000EC24002010B5FFF7C9FFFA22034B92008E
:1093300018685968002307F0B9FD10BDB02000205F
:1093400010B5FFF7BBFF024B1868596810BDC04647
:10935000B02000200B4B10B51B680400002B03D07D
:10936000094B1B68002B02D10620FFF777FF002373
:10937000064A99008858002801D00133F9E78C503B
:1093800010BDC0461425002018250020EC24002024
:10939000002310B5044A99008C58844201D001334F
:1093A000F9E70020885010BDEC24002010B504001F
:1093B000081E03D1034B2360200010BD21600AF07A
:1093C0001AFBF9E79469020010B50400002902D0E5
:1093D0000B78002B03D1034B2360200010BD0AF053
:1093E00043F9FAE794690200F8B504000E0015008D
:1093F00000290AD00B78002B07D0002A05D00800DE
:1094000097B209F06FF9874203D90B4B2360200014
:10941000F8BD681DFFF7A4FE20600AF0E9FA206895
:109420002A0047803100043008F04AFE23685D19A5
:1094300000232B71EBE7C04694690200014B0360E7
:109440007047C0469469020010B50548054C20607D
:109450000AF0D1FA2000044A04490DF052FA10BD76
:10946000946902001C250020002000205B360200C9
:10947000084B73B51D680400002D0AD001002E684A
:1094800008220831684608F01BFE0CCC2800316821
:10949000884773BD20250020014B03607047C046FC
:1094A0009C69020010B50400081E03D1034B236021
:1094B000200010BD21600AF09EFAF9E79C690200C5
:1094C00030B500684488A1420CDA8588AA4209DADE
:1094D000002907DB002A05DB6243401880188371EE
:1094E000002030BD0048FCE717FCFFFFF0B5070087
:1094F0000E001D0085B0002921DD002A1FDD002B94
:109500001DD00468638803938B4200DD0391A38818
:109510000293934200DD0292002306340193019BE3
:10952000029A93420ED029002000039A08F0C8FD49
:109530003B68AD195B88E418019B0133EEE70248F4
:1095400005B0F0BD0020FBE717FCFFFFF8B50400F5
:109550000D0016001F00002901DB002A02DA0D4B66
:109560002360F8BD100048430630FFF7F9FD206086
:109570000AF03EFA23685D809E80002F06D03B00F3
:10958000320029002000FFF7B1FFEAE720000AF0CF
:1095900044F9E6E79C690200F7B507000D1E03D108
:1095A000244B03603800FEBD002408002600210083
:1095B00001940378002B1AD03022524294469C44E6
:1095C0006246092A11D90A2B0AD1019B36190133A7
:1095D0000193B14200DA3100002426000130E8E7AF
:1095E000002CFBD000240136F8E70124F6E7019AAD
:1095F000380012B209B2FFF7A9FF012149420E005B
:109600000A203B689A1D2C78002CCBD02300303BDD
:10961000092B08D8CB43DB170B4043431B19303BC6
:1096200019000135EFE70029FBDB11703100013231
:10963000F7E7C0469C690200F0B5040087B004A8B3
:109640000E001D000192FFF749FD236801995A8819
:10965000914233DA9B889D4230DA1F2E2ED9059B2A
:1096600000939E422ADC052300217343049AA03B09
:10967000D3180393039B6E185B5C02930023019A3B
:10968000D718226850880090B8420EDD9088B0420A
:109690000BDD0098D2197043121810201841029F58
:1096A0003840471EB841404290710133052BE6D146
:1096B00001310529DED1002007B0F0BD0048FBE7ED
:1096C00017FCFFFFF7B5036806009F1D5B880D00C0
:1096D0005A1A0192002919DD0024994203DB0AF08D
:1096E0009CF8002013E033689B889C42F9DA7919D2
:1096F0003800019A08F0E4FC019B2900F8180AF0F0
:109700006FF8336801345B88FF18ECE70048FEBD52
:1097100017FCFFFF10B50548054C20600AF06BF9F7
:109720002000044A04490DF0ECF810BD9C690200C9
:109730002425002000200020D337020010B5054C5E
:10974000012120000AF033F92000034A03490DF0FB
:10975000D8F810BD28250020002000205B39020029
:10976000074A030010B50120934208D0834202D07B
:109770000020DB0703D41E20FFF7DAF8002010BD1D
:10978000FFFF00000048704716FCFFFF10B53220B5
:10979000FFF7CEF8004810BD16FCFFFF82801422B0
:1097A000002310B541620F4C0100083404600E2400
:1097B0000281123A837182720363838636310A789A
:1097C000C360A243036143618361C36103620A70A2
:1097D000021DD38701224287034AC263020040323E
:1097E000137010BDBC69020001000100F0B5564EB7
:1097F0000500376897B0002F00D090E006AC0B232F
:109800001C228221200001F0F9F90B231D22832163
:109810000AA801F0F3F90B231B2284210EA801F002
:10982000EDF908200DF078F801223B0011000490BA
:109830000BF0B8FC3A2128000BF0D3F900281CD01B
:10984000A38812AFBB80A379A268BB713F4B5C2099
:1098500012930E23E3561492A289BB73BA810DF0C2
:109860005BF805230193353300933A002900049BEC
:10987000040002F07DF8346051E0322128000BF042
:10988000DEF900281BD0A38812AFBB80A379A268A1
:10989000BB712E4B5C2012930E23E3561492A289C7
:1098A000BB73BA810DF038F8052301932D33009373
:1098B0003A002900049B040002F0FEF9DBE73C219A
:1098C00028000BF077F9002834D0362202AB9B8EAB
:1098D00012AFBB8002AB9B181B780832BB711B4BCD
:1098E000A420129302AB9B18109A1B781492059235
:1098F00002AA928F5BB2BA81BB730DF00DF80623FA
:1099000004000293013B0193373300933A00049B18
:10991000290001F04DFF0E4B346044341C600C4BA9
:10992000094C1868002802D021680AF0C9F920689B
:1099300017B0F0BD44200CF0EFFF0522049904009D
:10994000FFF72CFF97E7C0462C250020AC690200EA
:1099500030250020F0B56349C56885B08D4258DADE
:10996000030036331C7802222300134014425BD1DB
:10997000026901928A4265DA020036321278520791
:109980006AD4426902920200029C40328C4270DA30
:10999000010036310978090775D4002B7ED1137880
:1099A0009C46002B16D00100061DF38F3631013383
:1099B0009BB2F3870391097801270C003C403942A0
:1099C00000D188E01D2B05D9039BB94319700023F2
:1099D000F38713700AF054F8434A0723904277D96B
:1099E0004249043B8D4273DBC82201339200954209
:1099F0006EDC0198023B88426ADB013B904267DCE7
:109A000002980433884263DB0023904260DD063312
:109A10005EE0C822002352009542A9DD03003633E0
:109A20001A7800239207A3D4012306001F003636BC
:109A300032785408A7433C0002279C40BA43224393
:109A4000327095E7C822019C5200944299DD0200D1
:109A500036321278520794D4012306001C003636A1
:109A600032789708BC43A7000424A2433A433270DB
:109A700087E7C821029C49008C428EDD0100363107
:109A80000978090789D40100012636310B78DF08EF
:109A9000BE430827F600BB4333430B701378032BF8
:109AA00000D97CE70133DBB21370012B03D1002115
:109AB000031DD98773E7042B00D070E7020036320C
:109AC0001178033B0B43137000230430C3870B331F
:109AD000180005B0F0BD092B00D87BE76346F4877A
:109AE000013B76E770FEFFFFFF700200E0FCFFFF26
:109AF000F0B5C369C1681A68451D0400EB7F89B0E1
:109B0000114225D0002B57D10123A2791A4237D018
:109B1000002602226846A188A67109F037FEA31D1F
:109B2000DD7F012D2CD1FFF7FDFB3300226A801A67
:109B300099410F000600A1889F4203D1FA239B00A0
:109B40009E423BD30123042204A809F01FFE17E024
:109B50000B2B01D80133EB77EB7F082B0DD90122BA
:109B6000A37913420CD11343A188A37104A8130055
:109B700009F00CFEFFF7D6FB2062EB7F012BC3D967
:109B80000322A3791340012B14D1FFF7CBFB002351
:109B9000226A801A9941994202D10A4B984209D906
:109BA0000223A279A1881343A3710522012304A8EB
:109BB00009F0ECFD09B0F0BD013BCCE72B0003221E
:109BC000C2E7C046DB05000010B50400034B0833B4
:109BD0000360FFF7DDFB200010BDC046F069020006
:109BE000F0B5060000250F00040085B002930AAB13
:109BF0001B78083603930F4B29000833036001924A
:109C0000858085711822300008F002FB3900300091
:109C1000039A0CF0C2FC019B029AA380A31DE7717A
:109C2000DA77631D25622000DD77FFF793FB2000C4
:109C300005B0F0BDF06902000048704716FCFFFF58
:109C400010B53320FEF774FE004810BD16FCFFFF70
:109C5000002310B50400838083710D48216408300F
:109C600020608020C000A061E0612062110020001F
:109C7000E360236163616362A362E36223636363FE
:109C8000A363E363636409F0F3FF200010BDC046E3
:109C9000086A0200F0B5544E0500376897B0002FEF
:109CA0003DD10B231C22822106A80AAC00F0A6FF9E
:109CB0000B231D228321200000F0A0FF0B231B2279
:109CC00084210EA800F09AFF08200CF025FE012246
:109CD0003B00110004900BF065FA1D2128000AF0EA
:109CE00097FF002824D0A38812AFBB80A379A26875
:109CF000BB713E4B602012930E23E3561492A2894F
:109D0000BB73BA810CF008FE06230193173300934E
:109D10003A002900049B040001F0FEFE3460344B3D
:109D2000314A1B681068002B00D0436417B0F0BDA7
:109D30003C2128000AF09AFF00281BD0A38812AF0C
:109D4000BB80A379A268BB71284B602012930E23BD
:109D5000E3561492A289BB73BA810CF0DDFD062391
:109D60000193363300933A002900049B040002F06B
:109D700045F8D3E73C2128000AF01CFF002829D031
:109D8000362202AB9B8E12AFBB8002AB9B181B78B6
:109D90000832BB71154BA420129302AB9B18109A8A
:109DA0001B781492059202AA928F5BB2BA81BB73A0
:109DB0000CF0B2FD062304000293013B01933733FC
:109DC00000933A00049B290001F0F2FC084B1C6050
:109DD0004434A3E748200CF09FFD062204990400B8
:109DE000FFF736FF9AE7C04630250020AC69020035
:109DF0002C250020F0B587B001930EAB1B88060020
:109E000003930D9B0D000093019B0C9F0292002B6E
:109E10003DD0002F02D1009BDB0738D530200CF05D
:109E20007BFD0400103009F0A7FC2000243009F06D
:109E30003BFB029B1820258063800CF06DFD050024
:109E4000009B08220593019B002103600C300497BE
:109E500008F0DEF9082204A9281D08F031F90D4B9D
:109E600002226B6100230399E3602362E36233689B
:109E70000A43300021005B68A560A2809847002853
:109E800005D0200009F09DFB20000CF041FD07B03B
:109E9000F0BDC046053D020070B58CB08360109BDC
:109EA00001604260C3600400184918000AF018FEFF
:109EB000051E14D001001C22103105A808F000F97D
:109EC0006A4608AB43CB43C21B6813602068059900
:109ED000069A079B09F0DEFE28000CF019FD0C4BDA
:109EE000186800280ED00B4A05AB05920022069296
:109EF000C03202926A4622CB22C2230003220621EC
:109F0000FFF778FF20000CB070BDC046017802005A
:109F100020250020199F010082B0F0B50400EDB0AB
:109F20006420739372920CF0CFFB052210A81100ED
:109F300009F07CFC954911A8FFF72EFB192500229A
:109F400021AB013D1A605A609A600C33002DF8D1A4
:109F50001522290014A8139508F05AF9A0680AF0F0
:109F60003FFAFF210A90A06800F01EFC884FA0680D
:109F700000F0BEFA049508950995854B9F4203D0E1
:109F8000844B9F4200DBF7E0A0680AF02BFAA5683B
:109F900081491AA8FFF718FA78221AA9280000F0B8
:109FA00049FB1AA809F059FB0023794F04930326B3
:109FB000099B606801333340099309F0F9FD0500FE
:109FC000606809F0FCFD0022744B05929D420FDB96
:109FD000013205922A00C8320ADBAA22042192002B
:109FE0000591954204DC0596C82D01DC02220592FC
:109FF00000220692984210DB012306930300C83327
:10A000000BDBAA2304329B000692984205DC032353
:10A010000693C82801DC013B069310A809F0FDFB5C
:10A020005F4B00251E00079313ABEB5C012B05D1A2
:10A0300072783178FE3310A8FFF742FA0135023604
:10A04000192DF1D16B4618229A5E6B4610A8142187
:10A05000595E099BFFF734FA002F02DB049B0F2B9C
:10A0600007D90023A0681A007430009310A909F0E2
:10A07000EAFB13AE079B059A1B78934221D1079BFD
:10A08000069A5B7893421CD13378012B19D00C23AC
:10A09000089A0CAD53432800002221680B9309F065
:10A0A00011FE21AA94460B9B634407CD07C30123ED
:10A0B0003370089B0133DBB20893049B0133DBB29E
:10A0C0000493079B374A0233079301369342D1D159
:10A0D00064200CF0F9FA089B643F3FB2182B00D8BB
:10A0E0004BE71A0021A91AA809F0FBFF6A461DAB2D
:10A0F00023CB23C21B6813601A991B9A1C9B2068F0
:10A1000009F0C8FDE568002D0CD0274912A8FFF71B
:10A110005BF91C2328001AAA12A90AF016FD12A83E
:10A1200009F09BFAA0680AF05DF911A912A8A568C8
:10A1300009F05CFB00221D4B009212A9019328003C
:10A14000130000F019FA12A809F043FBFA2080006E
:10A150000CF0BAFAA0680AF045F90A99A06800F074
:10A1600023FB11A809F035FB10A809F032FB6DB0F4
:10A17000F0BC08BC02B01847002F03D0049B0F2B83
:10A1800000D014E7A06800F0B3F910E70C780200E3
:10A190008C3C0000D18AFFFF5178020058FDFFFF80
:10A1A000667802009878020001780200DC05000061
:10A1B000F0B5040085B0637A9C46002B04D12000E2
:10A1C00009F0ADFF05B0F0BDA37A266F019310230F
:10A1D000019AF35600259B1801229A402900F36842
:10A1E00003920293029BAB4231DDB068019B68434E
:10A1F000C01873694000E77A1A181B5C5078E2793E
:10A20000012F14D1571E3F1A18003B004243606FC4
:10A2100052008218D2189379634500DD6346627B51
:10A220001A4202D00123AB4019430135DAE7022F6D
:10A2300007D0032FEAD1277A013FFF1A0300380025
:10A24000E4E7571EFB1A277A013F381ADEE711238D
:10A25000C943F356606C994023691940039B194325
:10A260000CF0F2FAA27B072AACD8637B0C495B00A6
:10A270006373531CDBB290004158A373022A03D8C6
:10A2800008000CF016FA96E7064B20002363002323
:10A290006363054BE462236414300CF0DDF891E74E
:10A2A000346A0200B1A101000941020070B5040046
:10A2B000104B250008330360FFF76AF82000743064
:10A2C00009F087FA2000603009F083FA2000583046
:10A2D00009F0C3F92000503009F0BFF9064B1435DE
:10A2E000280063610CF0A7F8280005F0B9FE2000F3
:10A2F00070BDC046546A020090710200F8B5002596
:10A300000400324B858008330360857114301600D9
:10A310000F0005F08FFE20002D4BE5626361256480
:10A320005030FFF78BF820005830FFF787F82000F7
:10A330006030FFF7B1F820000423F25E336826672F
:10A34000590009B2743009F071FA3368226FE37171
:10A3500073680126237210236581A7802561D35677
:10A3600091685918994204DD300098400133054343
:10A37000F8E711230120D356D1685918994206DD18
:10A3800002009A402669013332432261F6E7142025
:10A390000CF0C2FA226900212A430123060006F0CC
:10A3A000D5F8FF23220063720133A38100234832D2
:10A3B0006664A37320001370A366FEF7CBFF01232E
:10A3C000A27920001343A371F8BDC046546A02006D
:10A3D000A4710200F0B5437A040085B0002B04D1CB
:10A3E000200009F09CFE05B0F0BD837A066F019352
:10A3F0001023019AF35600259B18012294469A4097
:10A400002900F36803920293029BAB422DDDB068F2
:10A41000019B6843C01873694000E77A1A181B5CF7
:10A420005078E279012F10D1571E3F1A18003B00D7
:10A430004243606F52008218D2189379002B02D0E9
:10A440006346AB4019430135DEE7022F07D0032FE7
:10A45000EED1277A013FFF1A03003800E8E7571EC4
:10A46000FB1A277A013F381AE2E71123C943F35652
:10A47000606C994023691940039B19430CF0E4F97F
:10A48000667AB31EDBB2FC2B14D8FEF711FF0C4B1F
:10A490000500236300230B4863630B4BFF217043CC
:10A4A000E462236406F0DCFB290041432000143001
:10A4B0000BF0D2FF637A012B00D994E790E7C046F6
:10A4C0001F410200B6030000094102001FB501232D
:10A4D00081881A00684609F059F9012368461A0074
:10A4E000024909F053F905B000BDC046FE03000063
:10A4F0001FB5030048331A780400002A0DD000224B
:10A500001A70012381881A00684609F03FF9012377
:10A5100068461A00034909F039F92000743009F03F
:10A520007CF91FBDFF03000010B504002300483371
:10A530001A78002A07D01B78012B04D00121024889
:10A5400008F090FFF2E710BDFF03000010B50121F5
:10A550000400072008F086FF064B984208D14834D3
:10A560002378002B04D02378012B01D020BFF7E7FC
:10A5700010BDC04616FCFFFF73B5079C0500002CFC
:10A580001CDB060048363078002802D030780128DD
:10A5900016D106981BB2C0B20090280012B27430D7
:10A5A00009F051F9002C07D02B004A331C800024FD
:10A5B00007234C352C803370200076BD014CFBE71F
:10A5C000014CF9E717FCFFFF12FCFFFFF0B587B065
:10A5D0000D9C05000E0017000393002C21DBFFF7F4
:10A5E000A3FF2B0048331B78DAB20292002B1AD15A
:10A5F000310005A809F0FAF80C9B3A0000932800F6
:10A60000039B019405A9FFF7B7FF05A809F0E1F83E
:10A61000002C03D02800FFF799FF029C200007B010
:10A62000F0BD024CFAE7024CF8E7C04617FCFFFF0A
:10A6300011FCFFFFF8B50400171E1DDD06004836AB
:10A640003378002B02D03378012B17D12200E37925
:10A650005632013B137023000025200054331D8027
:10A66000503009F057F823004A331F800223280096
:10A670004C3425803370F8BD0148FCE70148FAE707
:10A6800017FCFFFF12FCFFFFF7B504000F00161EBA
:10A6900018DDFFF749FF230048331B78DDB2002B9C
:10A6A00012D1390001A809F02DF8320001A92000CB
:10A6B000FFF7C0FF01A808F0D0FF2000FFF746FF1A
:10A6C0002800FEBD0148FCE70148FAE717FCFFFF40
:10A6D00011FCFFFFF8B50400171E2DDD06004836FB
:10A6E0003278002A02D03278012A27D15D42069BB7
:10A6F000FF331FD16B1D22001BB264321380230075
:10A70000200066331D70603009F078F823000022C5
:10A710006C331A70954200D03D0023004A331D80EF
:10A72000079B00205A1E9341013F4C34053327807C
:10A730003370F8BD069BDEE70148FAE70148F8E709
:10A7400017FCFFFF12FCFFFFF0B504000F0016001E
:10A750001D0087B0002A1FDDFFF7E6FE2300483307
:10A760001B78DAB20392002B18D1390005A809F042
:10A770003DF80D9B320001930C9B05A9009320002E
:10A780002B00FFF7A7FF05A809F023F82000FFF72B
:10A79000DDFE039807B0F0BD0148FBE70148F9E78B
:10A7A00017FCFFFF11FCFFFFFF2902D841720020B8
:10A7B00070470148FCE7C04617FCFFFF13B50400D3
:10A7C00004A80078009020000BF0AAFD002801D119
:10A7D000207516BD0048FCE70EFCFFFF13B5040012
:10A7E00004A80078009020000BF082FD002801D121
:10A7F000207516BD0048FCE70EFCFFFF7FB50D007D
:10A8000011000F226A4404001E1E117015D0089B0F
:10A81000002B12DD012329000093FFF7DFFF002842
:10A8200008D10090320029002000089BFFF7C6FFE6
:10A83000002800D0024804B070BD0248FBE7C046C3
:10A840000EFCFFFF17FCFFFFF7B506000D1E3ED004
:10A850000023022704690193002C34D0AA88A3881E
:10A8600053403B422DD13A4222D1A368AA68934279
:10A8700027D12B88002B02D022889A4221D16B88C5
:10A88000002B02D062889A421BD1EB68E2689342A7
:10A8900001D0002B15D17368002B01D02000984700
:10A8A000A2880C4B1343A380019B0133019308E062
:10A8B000A968A0680AF05CFC0028DAD1AB883B42AA
:10A8C000D3D0E46AC8E7019B2000002B00DC0248DB
:10A8D000FEBDC0460080FFFF17FCFFFFF0B506007D
:10A8E0000D0085B000295DD001270469002C27D018
:10A8F0000221AA8800230A4202D0A3885B083B40B9
:10A90000226829688A4215D1A068A968002B0FD057
:10A910000AF02EFC00280DD0EB68E268934209D1C2
:10A920000421625EA388002A06DB1F4805B0F0BD43
:10A930008842F1D0E46AD9E75B045B0CA380F4E7BA
:10A9400030692A880100031E07D13561012368465A
:10A95000164908F01BFF0020E8E71C88944206D245
:10A96000DC6A1900002C0DD02300F6E723001C88B8
:10A97000944207D15F886C88A74203D8DC6A19002B
:10A98000002CF3D1884209D10B889A4204D305D117
:10A9900048886B88984201D9E962D6E7CB6AEB62B6
:10A9A000CD62D3E70248C1E716FCFFFFFD030000BC
:10A9B00017FCFFFF064B10B51A00040008322C33B9
:10A9C000026083600830FEF749FA200010BDC046DF
:10A9D0006C6A020008B4024B9C46083808BC604709
:10A9E000B5A9010008B4024B9C46083808BC604772
:10A9F0005B4502000C4A002311002C32083110B5CF
:10AA000043608381837382600361436183618383D5
:10AA1000016004000830FEF713FA044B1A68002A9C
:10AA200000D11C60200010BD6C6A020020250020AF
:10AA300082B0F7B50125402609930CAB1B78046959
:10AA400008920193002C38D008AA238812889A42D1
:10AA500001D0002B29D108AA638852889A4201D0DC
:10AA6000002B22D1FEF750F90123002806D0C02286
:10AA7000A3881340C03B5A425341DBB2019A934230
:10AA800019D10422A35EA788002B14DB102208A989
:10AA9000A01807F015FB374209D1FEF735F9002859
:10AAA00005D021000748FEF7D1FAE46ACAE7200082
:10AAB00009F05CFDF9E70025F7E72800FEBC08BCBB
:10AAC00002B018476D45020008B4024B9C46083896
:10AAD00008BC60470947020010B5024808F04CFE68
:10AAE00010BDC046B8200020F0B587B001930EAB72
:10AAF0001B88060003930D9B0D000093019B0C9F88
:10AB00000292002B3DD0002F02D1009BDB0738D5ED
:10AB100030200BF001FF0400103008F02DFE200063
:10AB2000243008F0C1FC029B1820258063800BF0C4
:10AB3000F3FE0500009B08220593019B00210360A2
:10AB40000C30049707F064FB082204A9281D07F0C5
:10AB5000B7FA0D4B02226B6100230399E360236275
:10AB6000E36233680A43300021005B68A560A2807D
:10AB70009847002805D0200008F023FD20000BF0A6
:10AB8000C7FE07B0F0BDC04657470200F0B516003B
:10AB900000258380164A174B0400857102600181ED
:10ABA0004681057318688C4689B0A8421DD0124AA8
:10ABB00005950492C02202926A4604AB82CB82C2FF
:10ABC00023002A006146FFF78FFFC022094B0A4984
:10ABD000186802926A46069106AB079582CB82C23C
:10ABE00023002A003100FFF77FFF200009B0F0BDED
:10ABF000B06A0200202500208148020030B5002400
:10AC000003730123034D8471056081808273437354
:10AC1000846030BDAC69020070B583790400DB0745
:10AC200004D58068002801D00BF072FEA3799B0741
:10AC300004D5A068002801D00BF06AFEA3795B0759
:10AC400009D5A0230021154AA068DB00D150884215
:10AC500001D00BF05DFEA3791B0708D5A568002D78
:10AC600005D028000AF0F4FA28000BF051FEA37971
:10AC7000DB0605D5A068002802D00368DB6898478A
:10AC80006023A2791A4205D0A068002802D0036888
:10AC90005B6898470023A360A37170BD00700040FB
:10ACA000F7B50126037B040033422CD0827961235F
:10ACB0001100194001911A4216D1FFF7ADFF18207B
:10ACC0000BF02AFE0E230500E356677B182201993C
:10ACD000009307F09DFA3A00280000990BF05DFC04
:10ACE000A379A5603343A3716023A279A0681A42B7
:10ACF00002D00BF036FBFEBD436940681B6818406C
:10AD0000431E9841F7E70148F5E7C04616FCFFFFF0
:10AD1000012210B583794173134204D080680BF08F
:10AD2000DAFC002010BD6022134203D080680BF0D3
:10AD30001FFBF6E70048F5E716FCFFFF70B50400BF
:10AD400000250C4B0E0008338580857103602100BF
:10AD5000183009F046FE20002100203009F064FE82
:10AD6000054B2000A680E5802572E56025616561C0
:10AD70001C6070BDC06A0200342500208379DB07A7
:10AD800002D5C160002070470048FCE716FCFFFFB9
:10AD90008379DB0701D5C06870470148FCE7C046EE
:10ADA00016FCFFFF70B545690400002D22D0037A20
:10ADB000032B21D8FFF7ECFFE86230200BF0ACFD4D
:10ADC00030220021050007F023FA002263699A620D
:10ADD0002369934207D1636923610020237A656167
:10ADE0000133237270BD1A009B6A002BFBD163698B
:10ADF0009362F2E70148F5E70148F3E717FCFFFF2C
:10AE000013FCFFFF144B70B55A68144C002A03D092
:10AE100000225A600132A2601A69002A17D000216C
:10AE200019618023DB000E4DE3582868012B0FD1F8
:10AE3000A923DB00E1584942FFF7A0FF2868FFF78C
:10AE4000B1FF2B685A69074BE2500123A36070BD24
:10AE5000FFF794FFF9E7C046FC10004000100040E7
:10AE6000342500200405000070B505000C0008F032
:10AE70008CFA002804D1034A034BEC71D45070BD06
:10AE80000248FCE7001000402405000016FCFFFF0C
:10AE9000F8B5837905000020DB0765D408F075FA62
:10AEA000002862D16E69002E08D130300BF034FDDD
:10AEB00004003022310007F0ABF96C6100222C4B0A
:10AEC00001215A608022D20511605A68002AFCD004
:10AED0000622284B284C9A56284B0026E25007227F
:10AEE000043BE2500833E650254A264B2800E25046
:10AEF000E979FFF7B9FF01220821234B2348E650E7
:10AF00000433E250224B234FE1500433E05002233C
:10AF10002148235021482750214F04382750182713
:10AF2000204827506F6920482750C12080002150B9
:10AF30001E498538FF380B500B608021890060580E
:10AF40000E33034363501A4B5E6062605A68002AF6
:10AF5000FCD0002601271E612800A760FDF770FFC6
:10AF60003000AB791F43AF71F8BD1248FCE7C04613
:10AF7000FC0000402A7A0200001000400C0500008E
:10AF8000746962751C0500002C0500002300040292
:10AF900014050000FFFF0000340500003C05000020
:10AFA00021100100540500000405000000E100E04C
:10AFB000FC10004016FCFFFF03000069002809D0C8
:10AFC0000221054AD167826A1A611A7A013A1A7215
:10AFD000024B19607047C04604E100E000E100E068
:10AFE00037B54C680500002C04D10C4908F0BCFCB6
:10AFF00028003EBDA36A01A84B602278E36A033AA9
:10B00000211D08F0DDFC20000BF082FC280001A9C6
:10B0100008F0AAFC01A808F0A0FCE9E72825002018
:10B0200010B5002903DB024B19600BF0E6F910BDE7
:10B030003825002070B504001D0004AB1E7804F014
:10B04000B5FF20000E4B40302360FEF7F7F92300D8
:10B05000220001354C331D700023E12158320136A6
:10B0600016700A3AA3646365138053809381D38179
:10B07000013B200063644902FFF7D2FF200070BD4E
:10B080005C690200F7B580277F053E697C6908226C
:10B09000113C744305002100684607F011F8104B7D
:10B0A000009A9A4219D000930023019379692800ED
:10B0B0001339714309F0CFFC019A2800009909F077
:10B0C000E2FC2100280009F0C6FC7969220013394E
:10B0D00028007143B30809F0C8FC0198FEBDC046C2
:10B0E000FECA0000F0B50D00ABB000210D920700C4
:10B0F000302212A81E0007F08BF8280007F0F2FAA1
:10B10000431C0C93102B00D9B8E0202E00D9B5E0D9
:10B110002900380009F0E4FC0B90002854D12900E4
:10B120000C9A12A806F0CCFF32000D9916A806F072
:10B13000C7FF80235B051A695D690B92113D6A4365
:10B1400038005E690D92FFF79DFF0D9B302208339A
:10B15000002104001EA80F9307F05AF831000B9B42
:10B1600013395943380009F076FC00230F9E0C93E5
:10B170000E930C9BA34246DA310030221EA806F043
:10B180009FFF12A91EA807F069FA00282BD13D499C
:10B19000380022001091119409F075FC6A46099656
:10B1A00015AB23CB23C223CB23C223CB23C238002E
:10B1B000149B1299139A09F074FC01230E930C9BB3
:10B1C000303601330C93D4E70B9832000D991030D0
:10B1D00006F052FF04000B980BF09AFB002C9ED156
:10B1E00020002BB0F0BD6A46099621AB23CB23C2C9
:10B1F00023CB23C223CB23C238001E991F9A209B46
:10B2000009F04FFCDBE7E6433021F61726404E43BA
:10B210000F9B9E190E9B002B1CD10B9B981E05F0BB
:10B2200095FCA0422CD0174901343800220010911F
:10B23000119409F028FC6A46099615AB23CB23C26A
:10B2400023CB23C223CB23C238001299139A149B19
:10B2500009F027FC38000D9909F0FDFB80235B0500
:10B2600059690C230B9A133963434A433800110080
:10B2700002330D9A09F0F9FB0024B1E7024CAFE765
:10B28000024CADE7FECA000017FCFFFF13FCFFFFF6
:10B290008023F0B55B051A6995B002925A69059151
:10B2A0000299113A51435C69029B133C05005C43CF
:10B2B0000391FFF7E7FE061E3CD030220021083440
:10B2C00008A8039F06F0A4FF2100280009F0C3FB93
:10B2D0000023083701930493019BB34220DA39001D
:10B2E000302208A806F0ECFE059908A807F0B6F988
:10B2F00000280DD11B49721E28000691079209F003
:10B30000C2FB01230493019B303701330193E3E730
:10B3100022000C233900280009F0A7FB3034F2E7A3
:10B32000049B002B08D10F49320028000691079694
:10B3300009F0A9FB0C4812E02800039909F08BFBE7
:10B3400080235B0559690C23029A13394A437343DE
:10B3500011002800039A023309F087FB002015B082
:10B36000F0BDC046FECA00000CFCFFFF70B5040033
:10B37000A280FA22002308000C49920008312160C3
:10B38000A3710B496061E260A360638209F0A8FBCE
:10B39000051E09D00100200002221031123006F0F3
:10B3A0008FFE28000BF0B4FA200070BDD86A0200AE
:10B3B0009878020030B502258379040087B02B42CB
:10B3C00004D1FDF73DFDA3791D43A571200009F0CF
:10B3D000CDFB00281CD06B46DD1C280009F0BDFB0E
:10B3E0002B78002B17D001A809F0B5FB0321019A97
:10B3F000D3170B409B189B102382FDF793FFE36844
:10B40000A18818180123A0601A0002A808F0BEF94C
:10B41000002007B030BD0122064B1A60064A516871
:10B420000029FCD000215160044A126801920122D7
:10B430005A60DBE700C00040FCC0004008C5004087
:10B44000022802D10122014B1A707047BF29002047
:10B4500070B5064D04002B78002B04D1044801F090
:10B4600087FF01232B70200070BDC046C02900203B
:10B4700041B4010070B50C0007F087FF002810D020
:10B480000023134DA40A2B70200009F083FB002831
:10B4900003D00A200BF018F9F6E72B78002BFCD02C
:10B4A00070BD02210B4B0C4A99508021C90058589D
:10B4B0000028FCD0A120C0001C5058580028FCD007
:10B4C000002199508021C9005A58002AFCD0E7E792
:10B4D000BF29002000E0014004050000F8B50D0080
:10B4E00016001F0007F051FF002811D00023184C50
:10B4F00023703A003100280009F04AFB002803D0ED
:10B500000A200BF0E1F8F4E72378002BFCD0F8BD1B
:10B51000012380220F4C1049D2006350A358002B06
:10B52000FCD08022D200002394469F4208DD980080
:10B5300032582A506246A0580028FBD00133F4E765
:10B54000002363506346E358002BFBD0DFE7C0467F
:10B55000BF29002000E001400405000008B4024BB0
:10B560009C46443808BC6047994B0200FA21F8B564
:10B570000389C90004005943324809F00EFEFA213C
:10B58000890005F0E3FA304FA17A2081380009F0F4
:10B5900004FE23002600250022894C33A072A03629
:10B5A0001A808C3500232A223178286808F027FF7A
:10B5B000002844D11F235B223178286808F01FFF40
:10B5C00000283CD120235C223178286808F017FF3E
:10B5D000002834D101232C223178286808F00FFF8D
:10B5E00000282CD101232D223178286808F007FF8C
:10B5F000002824D101232E223178286808F0FFFE8C
:10B6000000281CD1A17A380009F0C2FD0E22C3B275
:10B610003178286808F0F3FE002810D1FA21238938
:10B6200089005943074809F0B3FD012303432A2247
:10B6300031782868DBB208F0E2FE002800D0034829
:10B64000F8BDC046F86A0200F06A02000EFCFFFF77
:10B6500008B4024B9C46443808BC60476DB50100F5
:10B66000074B10B51A00040008323C3302604364F3
:10B67000443008F0CBFA200008F0FBF9200010BDA0
:10B68000586B020008B4024B9C46443808BC604723
:10B6900061B6010008B4024B9C46443808BC6047C0
:10B6A000A34B0200F0B50425837904008BB02B4234
:10B6B00004D1FDF7C5FBA3791D43A571200090308F
:10B6C000FFF7EEFA0026B0420FD12300A03319781D
:10B6D00020000C2307AD00938C302B000122006862
:10B6E000FFF78CF8061E03D02C4E30000BB0F0BDD7
:10B6F0000A2304AA9B182A785A706A781A700022C2
:10B70000985EAA785A70EA781A700022995E0391BE
:10B710002A795A706A791A7000229F5EAA795A7043
:10B72000EA791A7000215A5E04922A7A5A706A7A6B
:10B730001A7000215A5E0592AA7A5A70EA7A1F2579
:10B740001A7000229B5EA27A03999C46514349429B
:10B750005043CB172B405B185B11A361C3172B40E1
:10B76000181864235743FA171540ED196A1122621D
:10B77000059A5B425343A36764236146049A4011D0
:10B780005A434B43E267221DE0612000D36708F073
:10B79000E2F92000443008F040FAA6E70EFCFFFF73
:10B7A00008B4024B9C46443808BC6047A5B601006B
:10B7B000F7B51E00040008AB1B881500019309AB08
:10B7C0001A8800910AAB31001F88FDF7E7FF2000BF
:10B7D0003A0031004430FEF73BFA134B20001A00C8
:10B7E0003C336364230008322260009A8C331A6071
:10B7F000AB8890308380AB7983710C4BAA6803606F
:10B800000E23EB5682602200A9899C32118083733B
:10B810002300019AA03303211A80FFF779FA200050
:10B82000FFF7A4FE2000FEBD586B0200AC690200C9
:10B83000F8B5FA260189B60004007143254809F0DD
:10B84000ACFC310005F082F9234FA17A2081380049
:10B8500009F0A3FC2500A072583500232A2229787C
:10B86000606C08F0CCFD002832D110232B222978FF
:10B87000606C08F0C4FD00282AD101232D2229780C
:10B88000606C08F0BCFD002822D101232E2229780B
:10B89000606C08F0B4FD00281AD1A17A380009F0D4
:10B8A00077FC0E22C3B22978606C08F0A8FD00284E
:10B8B0000ED121890748714309F06AFC0123034333
:10B8C0002A222978606CDBB208F099FD002800D0AC
:10B8D0000248F8BDC06B0200B86B02000EFCFFFF0F
:10B8E00010B50400034B0833036008F0C2F82000D1
:10B8F00010BDC046206C02007FB50425837904008A
:10B900002B4204D1FDF79CFAA3791D43A5712000B9
:10B910004830FFF7C5F90025A8420DD12300583360
:10B920001978062302AE009301223300606CFEF703
:10B9300065FF051E03D00D4D280004B070BD002129
:10B9400004200222A37A30567156B25659435A4304
:10B950004343DB002362D20023685242C900200027
:10B960009B6AA261E1619847E6E7C0460EFCFFFFD3
:10B97000F8B504000F00190006AB1E8807AB1500D0
:10B980001A88FDF70BFF0F4B676408332360230011
:10B99000AA8848339A80AA799A710B4AA968A26446
:10B9A0000E22AA5621652100A889543108809A7375
:10B9B0000023A371230058331E802000FFF738FFB7
:10B9C0002000F8BD206C0200AC69020010B5040034
:10B9D000034B0833036008F019F9200010BDC0467E
:10B9E000B46C0200F0B507005C370023040010229D
:10B9F0003978806C87B008F002FD214D03002800E3
:10BA0000002B3BD10F2602ABF61801233978082210
:10BA10000093A06C3300FEF7F1FEA8422DD0032264
:10BA20003378134203D06420FDF7A8FAEAE7FA2638
:10BA30002189144DB6007143280009F0AEFB310096
:10BA400005F084F82081A02311223978A06C08F039
:10BA5000D6FC002811D1A36C2189039371432800DF
:10BA60003F7809F095FB01231843C3B21022390037
:10BA7000039808F0C4FC002800D0014807B0F0BDCE
:10BA80000EFCFFFF546C020070B50825837904009A
:10BA900086B02B4204D1FDF7D3F9A3791D43A571DC
:10BAA00020004C30FFF7FCF8051E0DD023005C335E
:10BAB0001978062304AE009301223300A06CFEF730
:10BAC0009DFE051E03D0134D280006B070BD0E2349
:10BAD00032786B445A70727820001A700022995E96
:10BAE00064224A43A263B2785A70F2781A70002234
:10BAF000995E642252425143616331795970717980
:10BB0000197000215B5E5A432368E2631B6A984701
:10BB1000DAE7C0460EFCFFFFF8B504000F0019007D
:10BB200006AB1E8807AB15001A88FEF791F80D4B7F
:10BB3000A764083323602300AA884C339A80AA792B
:10BB40009A71094AA968E2640E22AA566165210029
:10BB5000A889583108801E8220009A73FFF742FF9F
:10BB60002000F8BDB46C0200AC690200F0B5FA2503
:10BB70000189234FAD0085B004006943380009F006
:10BB80000CFB290004F0E2FF1E4EA17A2081300058
:10BB900009F003FB636CA0720293230058332189E0
:10BBA00001931B7869433800039309F0F1FA0723E6
:10BBB0000343202203990298DBB208F020FC0028FE
:10BBC0001AD1019B22221978606C102308F017FC0F
:10BBD000002811D1019BA17A30001F78656C09F013
:10BBE000D7FA80235B420343232239002800DBB2CB
:10BBF00008F005FC002800D0034805B0F0BDC046A1
:10BC0000E86C0200E06C02000EFCFFFF10B50400BF
:10BC1000034B0833036007F02CFF200010BDC04623
:10BC2000586D0200F0B504258379040085B02B42DD
:10BC300004D1FDF705F9A3791D43A5712000483013
:10BC4000FFF72EF8051E0DD0230058331978062370
:10BC500002AE0093A8223300606CFEF7CFFD051EF4
:10BC600003D0144D280005B0F0BD1F200023F25E64
:10BC7000D31703409B180222B15E5B11CA17024022
:10BC800052180421775E3380F9170140A07A5211CF
:10BC90004343C919728049114243B18041435B4219
:10BCA000E3612368524220009B6AA26121629847A7
:10BCB000D8E7C0460EFCFFFFF8B504000F001900DE
:10BCC00006AB1E8807AB15001A88FDF767FD0F4B02
:10BCD0006764083323602300AA8848339A80AA79CE
:10BCE0009A710B4AA968A2640E22AA562165210006
:10BCF000A889543108809A730023A3712300583314
:10BD00001E802000FFF732FF2000F8BD586D0200B2
:10BD1000AC690200F7B5FA2504000189134EAD00A5
:10BD20006943300009F039FA290004F00FFF2700B9
:10BD3000A36C208100935C373B7881B2694330006B
:10BD4000019309F025FA6022C3B20199009808F026
:10BD500056FB002807D1012362223978A06C08F035
:10BD60004EFB002800D00248FEBDC0468C6D02008C
:10BD70000EFCFFFF10B50400034B0833036007F00F
:10BD800045FF200010BDC046B46D02007FB50825F8
:10BD9000837904002B4204D1FDF752F8A3791D43A7
:10BDA000A57120004C30FEF77BFF051E0DD023004F
:10BDB0005C331978062302AE0093E8223300A06CAE
:10BDC000FEF71CFD051E03D00B4D280004B070BD0E
:10BDD0000223F25E96235B425A4362630021725E45
:10BDE00020005343A3630423F25E96235343E3638B
:10BDF00023681B6A9847E8E70EFCFFFFF8B50400CC
:10BE00000F00190006AB1E8807AB15001A88FDF756
:10BE10001FFF0D4BA764083323602300AA884C330F
:10BE20009A80AA799A71094AA968E2640E22AA56F0
:10BE300061652100A889583108801E8220009A730C
:10BE4000FFF768FF2000F8BDB46D0200AC69020086
:10BE500010B50400054B083303601C3007F0FDFBF0
:10BE60002000183007F0F9FB200010BDE06D020043
:10BE7000FF23F0B52C4E8DB03370002304006946CB
:10BE80000088009303F0C8FF002802D16B469B781E
:10BE90003370264D2B68DB68002B07D100232088E8
:10BEA0001A00190008F0EDFE0DB0F0BD3378032B39
:10BEB000F4D81F4901A8FDF787FA2B6801A9DD68AE
:10BEC00004A807F01FFC280004A908F038FE00278A
:10BED000050004A807F0C1FBBD421ED029002022A6
:10BEE000103104A806F0ECF828000AF011FD3178B2
:10BEF00004ABC9005918082202A806F0E1F8012392
:10BF00000822208802A908F0BCFE0137002804D1CD
:10BF10000C212088074A08F0B2FE01A807F09DFB1B
:10BF2000002FBBD0C0E7C046842000204825002059
:10BF3000A0780200FFFF0000F0B58379040091B003
:10BF40005B071BD5FDF7EEF900232269801A9941A2
:10BF5000994203D1F533FF3398420FD3A0680028EC
:10BF600008D0354B1D8801F0FFF803681522290021
:10BF70001B6A98470422A3799343A371A3799B0773
:10BF800058D52E4E3368DB68002B4FD02C4F3B78B2
:10BF9000032B4BD8284B2B491B8804A80193FDF792
:10BFA00013FA336804A9DD6808A807F0ABFB08A9F9
:10BFB000280008F0C4FD050008A807F04EFB082380
:10BFC00002AAD3800198073B063206A908F05BFE5F
:10BFD000002D08D029002022103108A806F070F8A2
:10BFE00028000AF095FC3D7802ABDA88ED0008AB3A
:10BFF0005D19280006A906F03FF8002813D0082292
:10C00000280006A906F05CF8336804A9DD6805A8D5
:10C0100007F078FB2023280008AA05A908F095FD61
:10C0200005A807F01AFB04A807F017FB0222A37962
:10C030009343A37111B0F0BD68290020482500206A
:10C0400084200020A0780200F0B50400150085B01F
:10C0500001930AAB1F880BAB1B78461C02930EABF7
:10C060001B78102203930B7803704B8A01314382B3
:10C07000300006F025F8656100250122019B278329
:10C080006383039BE5832377029B2000F377A31C44
:10C09000DA770C9B0C26636223000D9A2833290063
:10C0A0001A705D7032009D702C3006F0B1F82000DF
:10C0B000064B3200A3632900E563403006F0A8F880
:10C0C0002000034B2565E36405B0F0BD9D4C0200E4
:10C0D0008F4C020070B50D0001F046F804000368B3
:10C0E000002D09D15B699847FA2080006843074911
:10C0F00004F02CFDE08070BD9B6898478542F3D228
:10C10000236820009B6898470500EDE77102000056
:10C11000F0B507001500A1B002C706006B4918A8CA
:10C120001C0008F0B3FE2B1E03D0280006F0DAFA3C
:10C1300083B20122049200220392029202320192FF
:10C1400000932A0018A93800FFF77EFF33006049EA
:10C15000583318A8079308F099FE231E03D0200037
:10C1600006F0C0FA83B201220492002203920292E6
:10C17000023201920093220018A90798FFF764FF8A
:10C1800033005449AC3318A8089308F07FFE269B6F
:10C19000002B03D0180006F0A5FA83B20122049206
:10C1A000002203920292023201920093269A18A969
:10C1B0000898FFF749FF731CFF33474918A80993F4
:10C1C00008F064FE279B002B03D0180006F08AFAC3
:10C1D00083B2012204920022701C03920292023266
:10C1E00001920093279A18A9FF30FFF72DFF330023
:10C1F0005533FF33394918A8099308F047FE289BA7
:10C20000002B03D0180006F06DFA83B201220492CD
:10C21000002203920292023201920093289A18A9F6
:10C220000998FFF711FF3300A933FF332C4918A8F1
:10C230000A9308F02BFE299B002B03D0180006F070
:10C2400051FA83B201220492002218AC03920292A6
:10C250000232019200932100299A0A98FFF7F4FE16
:10C26000204B1B780B93002B2DD1079B1E4913935A
:10C27000089B0DA81493731CFF331593099B129709
:10C2800016930A9B12AD179308F000FE1D2149205A
:10C2900006AB1B7F1022237006ABDB8D638206ABDF
:10C2A000C918C01805F00CFF062323750B9B1E95BB
:10C2B0003068A38300F068FF036821001B6898477B
:10C2C0000122084B1A70300021B0F0BD292A00006D
:10C2D000242A0000252A0000272A0000262A000020
:10C2E000282A0000C12900200A18000070B5002586
:10C2F00004000B4B8580083385710360C1601830E2
:10C30000FDF79CF820001C30FDF798F80123621C13
:10C31000D377044A2000A56065611460A37170BDE5
:10C32000E06D020048250020FA2130B585B00400F8
:10C33000012302226846890007F028FA074D286881
:10C34000002809D008F0AEFD2188054B2A68198025
:10C35000022391790B43937105B030BD482500202D
:10C360006829002010B50C0007290FD8806800F05C
:10C37000FBFE074B195703685B6C984743425841D3
:10C38000044B40421840044BC01810BD0348FCE762
:10C390002A7A0200EA03000016FCFFFF17FCFFFFE9
:10C3A000F0B5A04C0D00A544040007939AAB1B7890
:10C3B0009D4909A804930692FDF706F8200029007C
:10C3C0001C3007F0A7F9C020800000F0C7FF08204C
:10C3D0000AF0A2FA060000210EAF08F056FF15ADD4
:10C3E0000C220021A660380005F012FF2B0007CFB9
:10C3F00007C38E4B2900EB60002330002B6108F04F
:10C400002DFFA06800F0B0FE08220021059016A8BC
:10C4100005F0FEFE14200AF07FFA854B2A001593E2
:10C420000300C2CAC2C3834B059EC3600023A0366B
:10C4300003617368002B00D0EEE07060A06800F02C
:10C44000A3FE08220021060016A805F0E1FE142034
:10C450000AF062FA784B1593030086CD86C3774BBA
:10C46000C36000230361336B002B00D0D6E0306340
:10C47000A06800F079FE08220021059016A805F0BA
:10C48000C7FE14200AF048FA6D4B15AD15932A002B
:10C490000300C2CAC2C36B4B059EC360002394361F
:10C4A00003617368002B00D0BAE07060012604AB12
:10C4B0001B7C04AA334308A93000137408F0E5FB81
:10C4C000A06800F071FE03685F495B6A9847A06846
:10C4D00000F06AFE03685D499B699847A06800F018
:10C4E00063FE002302680093176804993200B8477E
:10C4F000049B002B0AD0200008F0DDFC032805DD9A
:10C50000A06800F051FE0368DB68984700260EAF74
:10C51000B819073608F00BFC1C2EF8D1183E04ABF6
:10C52000A0685E770A9700F03FFE03680AA91B69BE
:10C530009847A06800F018FE03680AA95B6D984749
:10C54000A06800F011FE03680021DB6D9847A06829
:10C5500000F00AFE036802219B6D9847002120002D
:10C56000FFF700FF18200AF0D7F9A16800F054FA8D
:10C57000374B384A1B68A1680393374B28001B6868
:10C5800000250293354B1B680193069B1B689B1982
:10C590000093334B12681B68FFF7BAFD30200AF096
:10C5A000BBF9079AA16800F0F9FAA06800F0DCFD79
:10C5B00003680CA99B6A9847082304AA1384A068FF
:10C5C000DB185384958400F0CFFD03680CA9DB6A67
:10C5D00098473100A06808F02CFC099A092193784B
:10C5E000A068921908F038FCA06800F0BDFD322167
:10C5F0000571A068FFF76EFD04AB1B7FAB4204D052
:10C60000A06800F0B1FD08F088FB09A807F025F844
:10C6100095239B009D44F0BD03610EE7036126E76F
:10C62000036142E7ACFDFFFFAC780200AB4C0200B7
:10C6300029C30100B94C020071BE0100C74C0200C1
:10C64000F54C0200D54C020065C6010099C60100F8
:10C6500044250020402500200C2000203C250020FF
:10C660001020002013B506226846FCF7BDFE094BDA
:10C670001C68002C0AD0694601A807F043F8200086
:10C6800001A908F032FC01A806F0E7FF684606F0B1
:10C69000E4FF13BD48250020002373B501AE0C0054
:10C6A00031000500019303F0B7FB002802D1B278F6
:10C6B000064B1A70064B1868002806D0054B1D80E3
:10C6C00063425C41E1B208F018FC73BD8420002095
:10C6D000482500206829002030B5284CA9B06A22DE
:10C6E0000D000DA8210005F0EBFC0DA903A8FCF737
:10C6F000D9FE03A906A807F079F801230193013BAD
:10C70000FF3B00930533FF33642206A92800FEF7A0
:10C710001BF806A807F05DF8210019226A3106A867
:10C7200005F0CEFC05220024110006AB04A807F09A
:10C7300084F804A905A807F059F82300220028006E
:10C740000194009405A9FDF741FF05A807F041F801
:10C7500021002800FEF728F805340520FCF70EFC20
:10C76000FF2CF5D1FA208000FCF708FC04A807F0A4
:10C7700030F803A807F02DF829B030BDA7790200E2
:10C78000F0B59C4B95B005921A68082304000F0081
:10C79000D16C06A80B43D3649749FCF715FE974963
:10C7A00007A8FCF711FE220000250DAE30001C3258
:10C7B00006A906F0BEFF310007AA08A806F0B9FFD7
:10C7C000300006F04AFF631CDD77A06800F0CCFC67
:10C7D00003685B6998477019073508F0A8FA1C2DA3
:10C7E000F9D180230BADDB00AB80A0680B9600F085
:10C7F000BBFC036829005B6D9847A06800F0B4FC9F
:10C80000036800219B6D9847A06800F0ADFC030011
:10C81000002506000A331F2200211800039305F0AB
:10C82000F7FC039B3000DD7708F06EFA0621A06864
:10C8300008F0FFFA089A09219378A068043208F0FA
:10C840000BFBA06800F090FCC8210571A068FFF701
:10C8500041FCA06800F088FC0581A06800F084FC21
:10C8600008F05BFA3800FDF743FE2000FCF7E8FA19
:10C8700039002000FFF730FF3900200008F050FB9E
:10C88000FF23049503936269012316001E401A4298
:10C8900032D05B4909A8FCF77FFE09A90AA806F077
:10C8A000A5FF00220AA91300019200923800FDF7AB
:10C8B0008DFE0AA806F08DFF049B002B47D1039B39
:10C8C000043B0393039B282B44DC380007F08AFDCC
:10C8D000039B002B00DC0496059807F083F90028E1
:10C8E00006D0012362699A43130004221343636153
:10C8F00009A806F06EFF002504226369134234D0B4
:10C90000FF213800C826FDF74FFF0025B600A369B8
:10C9100002229B5EAB4223DD200029B2183006F0D4
:10C920001EFF0023010038001A007430FCF784FE5B
:10C930003000FCF723FB380007F054FDC820FCF75B
:10C940001DFB0222636913420AD10135DFE7039B15
:10C950000433B6E7039BFE2BBEDD00230493BBE745
:10C96000FA208000FCF70AFB0025022263691342CB
:10C970001ED01E0006321640134224D0214909A8B9
:10C98000FCF70AFE09A90AA806F030FF00220AA94E
:10C990001300019200923800FDF718FE0AA806F075
:10C9A00018FF1948FCF7EAFA09A806F012FF174D1C
:10C9B0006420FCF7E3FA164B01359D4200DC62E788
:10C9C00006F0F5FC5FE7134909A8FCF7E5FD09A9A6
:10C9D0000AA806F00BFF330032000AA938000196BE
:10C9E0000096FDF7F3FD0AA806F0F3FE09A806F08D
:10C9F000F0FEDDE7CC240020BA780200CA780200FD
:10CA0000CC78020011790200983A00008C0A0000EC
:10CA10008B0A00004E7902005A4BF0B508330360D0
:10CA2000816004002520A9B002AB10220391C01838
:10CA3000002105F0EDFB0BAE0123320052483370AC
:10CA40000E33195C01321170013BFAD2312202AB74
:10CA5000D218537811781B020B43252113AD220005
:10CA60006B8202ABC91845230C32029202A83278BD
:10CA70001B1818002A70102205F022FB029B64216B
:10CA800018930A230026012702AA521813705B1874
:10CA900002AA9B1831000C221E702F77EE832E8580
:10CAA0001EA819971C9605F0B3FB384B0C223100D9
:10CAB00023A82193229605F0ABFB354B02AA2693BF
:10CAC00046239B1803221120DA7702AB0D32C018DF
:10CAD000310026732796059505F09AFB02AB1F746B
:10CAE0000F232C4806AA195C01321170013BFAD2BF
:10CAF0001D2202ABD218537811781B020B4325205C
:10CB0000112102AA0BAD127C6B8202ABC9182A70EC
:10CB1000C018102205F0D4FA012300272B7505ABAD
:10CB200011930398AF8300F02FFB036829001B6863
:10CB3000984713ABDB8BA068A38200F025FB03684A
:10CB40000097A18A029ADD680123A847A06800F037
:10CB50001BFB0600142009F0DFFE0123050007611E
:10CB6000082210C006A90793069705F0A9FA0A4BF8
:10CB7000EB60B369BB4203D12000B56129B0F0BDC1
:10CB80002B61F9E7F86D0200327A02009D4C020039
:10CB90008F4C0200427A0200814F0200F0B500245F
:10CBA0000500774BD9B0083303608160C2607549D6
:10CBB00022008480847143A808F0A0FA2B0014336B
:10CBC0000126042706931223069A049601930097E0
:10CBD000230043A90394029419A8FFF735FA220011
:10CBE000694943A808F08AFA0C232A0004961032F7
:10CBF00001930097230043A9039402942EA8FFF702
:10CC000023FA2200614911A808F078FA2A001C32A0
:10CC1000079208222300049601920097079A11A90F
:10CC20000394029443A8FFF70FFA2200584911A871
:10CC300008F064FA542009F06FFE06001220012368
:10CC400004212A00019011A81832049300912300B6
:10CC500001000394300002941700FFF7F5F930004B
:10CC60004C4B0822119311AB1900AE62F5623030C3
:10CC7000129405F025FA484B0122B363330029339F
:10CC80001A703800079903322C61EC6105F018FA2C
:10CC900039000422069805F013FA5E22032302A944
:10CCA0005218D377B2225218D3770A000732FF32D4
:10CCB000D377B21CD37719AB08932EAB2200374938
:10CCC0000993AC8543AB0CA80A930B9608F016FAAF
:10CCD00028223C2002AB9B181B7802AA1218137062
:10CCE00002AB5B8F123002AA12181380292302A90B
:10CCF0005B181900113802AB1022C01805F0E0F9DA
:10CD00005022042102AB9B185822197002AB9B18C9
:10CD100008AF1797A8681C8000F036FA036811A9BD
:10CD20001B6898477A2202AB9B181B8854322B84CD
:10CD300002AB9B181B885432AB8402AB9B181B8838
:10CD4000A8686B8400F020FA0700142009F0E4FDC5
:10CD50000600134B0461082220C00CA90C930D940B
:10CD600005F0AEF90F4BF360BB69A34206D1280072
:10CD7000BE61FCF765F8280059B0F0BD3361F6E7F5
:10CD8000046E0200727A0200527A0200627A020095
:10CD9000827A0200CF500200FF4F0200927A020016
:10CDA00071CE010029500200F0B5040085B01F00CB
:10CDB0000CAB1B88103001930E00150006F0DCFC54
:10CDC0002000243006F070FB26806580182009F0D2
:10CDD000A3FD0826050032000AA902A805F070F993
:10CDE0002800320000212F600C3005F011FA3200CB
:10CDF00002A9281D05F064F9064B022220006B6190
:10CE000000230199A5600A43E360A2802362E362E4
:10CE100005B0F0BD5350020070B5040092B08068B8
:10CE200000F092F9826D0223110019401A421AD1C2
:10CE3000A38D002B17D00D4AE568049210220292B0
:10CE40006A46A185059104AB41CB41C20A0023008B
:10CE500006A8FFF7A9FF2B6828009B6806A998473A
:10CE600006A806F0AEFB12B070BDC046935002009B
:10CE7000F0B58DB005904B88828C0E89CC689A42B3
:10CE80000AD1032E38DD62882188012308A806F024
:10CE90007DFC043E0434F4E7059A528C9A422BD16F
:10CEA000032E29DD059B3020DF68238806936388E5
:10CEB0000793124B08930023099309F02DFDC0231B
:10CEC00002936B46050008AA03CA03C32800059B0A
:10CED0000699079AFFF768FF3B68290038005B68EE
:10CEE0009847002805D0280006F06BFB280009F0C1
:10CEF0000FFD043E0434D3E70DB0F0BD93500200A3
:10CF0000002815D0006041608260C3600461456103
:10CF10008661C761444604624C464462544684625A
:10CF20005C46C462644604636E464663744684632A
:10CF3000002A06D0C46B043C043A25681560B4424C
:10CF4000F9D18C6BA6464E6BB546002B06D0CC6B48
:10CF5000043C043B1D682560B442F9D10C6BA44627
:10CF6000CC6AA3468C6AA2464C6AA1460C6AA046CB
:10CF7000CF698E694D690C69CB688A680868496811
:10CF80007047006041608260C360046145618661F2
:10CF9000C761444604624C464462544684625C461F
:10CFA000C462644604636E46466374468463C46B1D
:10CFB000043C043925680D60B442F9D1C76986691B
:10CFC000456904697047006041608260C360046124
:10CFD00045618661C761444604624C4644625446DA
:10CFE00084625C46C462644604636C46446374466F
:10CFF000846304697047846BA646446BA546046B42
:10D00000A446C46AA346846AA246446AA146046A46
:10D01000A046C769866945690469C3688268006873
:10D020004168704710B5041E0CD005F05BFB431E31
:10D03000E318A34208D922781978013B21705A706D
:10D040000134F6E7014810BD0020FCE717FCFFFFA4
:10D05000F0B585B00D1E009029D000260A27C21712
:10D06000141A4B1E544003932000029639000136D7
:10D07000019603F0DBFECB17C9185940039B3031F2
:10D0800020009955390003F0EBFD041EECD1009B04
:10D09000002B04DA2D23029E019A0236AB540023A2
:10D0A0002800AB55FFF7BEFF200005B0F0BD014CD6
:10D0B000FAE7C04617FCFFFF0268084B406810B54E
:10D0C000C018C000101803009A4205D81C688C4292
:10D0D00002D31800083BF7E710BDC046FFFFFF1F53
:10D0E00070B5064D04002B68002B02D108F0C6FA7B
:10D0F000286023689B00EB58636070BD5C250020AE
:10D1000070B500280ED10D4D2E68002E08D10830C4
:10D1100009F002FC040006604660FFF7E1FF2C60A6
:10D12000286870BD064A0123116806480C001C409F
:10D130001942F6D1036044601360F2E750250020E5
:10D140004C25002054250020436810B50400002B16
:10D1500002D1044809F0EDF9606803681B6998473B
:10D1600010BDC046A27A0200436810B50400002B2F
:10D1700002D1044809F0DDF9606803681B6998472B
:10D1800010BDC046A27A0200436810B50400002B0F
:10D1900002D1044809F0CDF9606803689B6998479B
:10D1A00010BDC046A27A0200436810B50400002BEF
:10D1B00002D1044809F0BDF9606803685B6A9847CA
:10D1C00010BDC046A27A020010B5040001F0A2FC16
:10D1D000034B1B68002B01D02000984710BDC046B0
:10D1E00064250020F0B58BB0050002F04FFC002054
:10D1F00000F0E8FB036807001B6998473B680400E0
:10D200009B69380098473B6806005B6A380098477E
:10D210000200288810380B2861D803F083FC063DF3
:10D220006060605A606060666078AF882000390096
:10D2300008F07EFC22006B7B583201931378A879AA
:10D240009C46022361460B43137004AB1F800123ED
:10D2500004AA93701300D070019AE91D9A722B00F2
:10D260000622163305A8099304F02AFF29000B2093
:10D2700004AB06220E31C01804F022FF9434636818
:10D28000A360A06800282AD0C36804A99847A368AF
:10D29000002BF4D01B69F3E720002F49AF8808F07A
:10D2A00047FC2200022058321378A9798343137077
:10D2B00004AB1F809970A0346368A360A068002845
:10D2C0000DD0C36804A99847A368002BF4D01B694C
:10D2D000F3E75369002B02D0A888A91D98472900BD
:10D2E000300008F0F9FC0BB0F0BD636E002BF6D0F7
:10D2F000AF79A366A06E0028F1D0C36839009847C3
:10D30000A36E002B01D1636EF3E71B69F1E70122E5
:10D310000D27AB7BE91D1A4001925A07920F02922A
:10D32000DB08062204A8EF57039304F0C9FE019A14
:10D3300004ABDA716A46127A9F711A726A46127BDE
:10D3400020005A722B008C340F33079380302368EF
:10D3500004A99847C3E7C046FFFF00000300072069
:10D36000D72B02D90020014A1360704760250020A6
:10D37000014B18607047C046642500207FB58022AD
:10D38000A323D205DB00D3580820DB0700D40530E7
:10D3900048221C4B1C4901F02DFE00280AD080B207
:10D3A000002807D1BFF34F8F184B194ADA60BFF33B
:10D3B0004F8FFEE701230493164B04A81B680193CB
:10D3C000059307F071FF002802D0072007B000BDC9
:10D3D00002A807F067FF0028F7D102A907F060FF55
:10D3E0000028F2D10C4801F035FE80B20028EDD1C2
:10D3F0000A4801F039FE80B20028E7D100F020F899
:10D40000E4E7C046AD5202006825002000ED00E0D0
:10D410000400FA0560250020E5D10100C9D1010012
:10D4200080B2002807D1BFF34F8F034B034ADA6065
:10D43000BFF34F8FFEE7704700ED00E00400FA05F0
:10D440001FB5002302ACA380283323806933FF3348
:10D450006380E380803B01A8FF3B05220C490370F9
:10D4600007F030FF80B200280FD18020800007F045
:10D4700025FF80B2002808D1200007F021FF80B2EC
:10D48000002802D107F018FF80B204B010BDC046DA
:10D49000C57A020000487047FFFF0000F0B597B062
:10D4A0000593036807AC1B680491039311002300E4
:10D4B0000600A1C9A1C30025D36829000C220CA82D
:10D4C0000A930B9504F0A4FE35200B4B11AF0F937C
:10D4D00004AB29001022C01810953D7004F098FE8E
:10D4E000059B7D822200009330000499039C0197E4
:10D4F0000CABA04717B0F0BDDF530200FC3070B595
:10D50000046C0500002C0DD1242009F005FA064B0F
:10D5100044608361054B8460C46004614461C461FC
:10D5200003602864286C70BDF06E0200D86F0200A2
:10D53000FC3070B5C56B0400002D11D1342009F00A
:10D54000EBF9084B85604360074B45610361074B6E
:10D550000562C361064BC5628362064BE0630360EC
:10D56000E06B70BD206F0200106F0200806F020040
:10D57000906F0200A06F0200064B70B504000360BC
:10D580004068002804D0056909F0C2F92800F8E7CE
:10D59000200070BD546E0200064B70B5040003609D
:10D5A0004068002804D0056909F0B2F92800F8E7BE
:10D5B000200070BD246E0200064B70B504000360AD
:10D5C0004068002804D0056909F0A2F92800F8E7AE
:10D5D000200070BD346E0200064B70B5040003607D
:10D5E0004068002804D0056909F092F92800F8E79E
:10D5F000200070BD446E0200064B70B5040003604D
:10D600004068002804D0056909F082F92800F8E78D
:10D61000200070BDF06E0200064B70B50400036080
:10D620004068002804D0056909F072F92800F8E77D
:10D63000200070BD406F0200064B70B5040003600F
:10D640004068002804D0056909F062F92800F8E76D
:10D65000200070BD006F0200064B70B5040003602F
:10D660004068002804D0056909F052F92800F8E75D
:10D67000200070BD306F0200064B70B504000360DF
:10D680004068002804D0056909F042F92800F8E74D
:10D69000200070BD906F0200064B70B5040003605F
:10D6A0004068002804D0056909F032F92800F8E73D
:10D6B000200070BD806F02007FB503791548002BF4
:10D6C00022D0154E154C33782000002B1CD102AD12
:10D6D000280007F061FE002810D16B88592B0DD16E
:10D6E0002B78AA88D91F012910D800920C4A202132
:10D6F000200004F071FF0123337004E02022200099
:10D70000084905F01DF8200004B070BD0092064ADB
:10D71000EDE7C046CB7A0200E2290020C2290020B2
:10D72000ED7A0200E57A02000A7B0200FC3070B557
:10D73000046C0500002C0DD1242009F0EDF8064BF7
:10D7400044608361054B8460C46004614461C461CA
:10D7500003602864286C70BDF06E0200D86F020070
:10D76000134B70B508330360124B0400C360802371
:10D77000114A451CFF355B00C250280008F05BFED3
:10D78000280002F06DFC20000C4BB830E360FFF77E
:10D79000F3FE2000AC30FFF71FFF2000A030FFF7A2
:10D7A0000BFF20006C30FFF7F7FE200070BDC04675
:10D7B000047002004C70020090710200646E02005E
:10D7C000F8B505000400AC356B68AB60A8680028AC
:10D7D00007D0C36821009847AB68002BF4D01B69C1
:10D7E000F3E76868002804D0066909F091F8300072
:10D7F000F8E7220003215832137868608B431370D6
:10D8000023005C33187020000A3007F02EFF200040
:10D81000343007F02AFF606E002804D0056909F053
:10D8200077F82800F8E725009435606668680028D6
:10D8300004D0066909F06CF83000F8E72600A0363D
:10D8400068607568002D05D02F69280009F060F820
:10D850003D00F7E72000290075600C226C3004F0D1
:10D86000D7FC2000074BE5672900A3670C22803016
:10D8700004F0CEFC2300044A8C33903428001A6054
:10D880002560F8BDC3530200B5530200434BF0B509
:10D8900008330360424B060000251F27C360A02306
:10D8A0000400163685B03A002900057185600574BC
:10D8B00043828582300004F0ABFC8023802120006D
:10D8C000C9019B0033840A002B00F577383000959E
:10D8D00000F05AFD2100403103913A0029000398DD
:10D8E00004F096FC23008022039960339200CD77E8
:10D8F0001A80220003216432137820008B431370B6
:10D90000230068331D70274B2900E3660C2225672E
:10D91000783004F07DFC2300270088331D60224B03
:10D920000837FB67843729000C22380004F070FCAC
:10D930001E4B1F4AFB602300A0333D611A601D4A45
:10D940005D60DA601C4A1D619A61DD61300007F09C
:10D950008CFE039807F089FE184B601CE3602300DF
:10D96000C4331D809D70FF3002F064FB8C235B008C
:10D97000E55023001933FF335D618023104A5B00BB
:10D98000E250230001222000FE3352425A86023B1D
:10D990009D63DD631D6405B0F0BDC04604700200E8
:10D9A000646E0200246E0200C3530200B5530200ED
:10D9B000346E0200446E0200546E02004C7002008D
:10D9C000A471020070B5074D2B68002B07D1A02071
:10D9D000400008F0A1FF0400FFF758FF2C60286802
:10D9E00070BDC046B025002070B50C220D0000218E
:10D9F000040004F00DFC00232361024B200025608D
:10DA0000E36070BDD153020070B500250400204BC7
:10DA1000290003601F4B858083601F4BC5604361F5
:10DA20001E4B856103621E4B4562C3621D4B05633D
:10DA30008363C5634430FFF7D7FF200029005830C7
:10DA4000FFF7D2FF200029006C30FFF7CDFF200048
:10DA5000154B290023607822803004F0D9FB200088
:10DA60002900F022F83004F0D3FB2000E93029002F
:10DA70005022FF3004F0CCFB8E239B00E5540B4B6F
:10DA800029002822E01804F0C3FB200070BDC04626
:10DA9000506F0200006F0200106F0200206F020042
:10DAA000306F0200406F0200D87002003A0200009E
:10DAB00010B50400024B036007F005FE200010BD06
:10DAC000106F020010B50400024B036007F010FE57
:10DAD000200010BD206F0200024B0B600923136071
